:020000041010DA
:1000000000B50C4B00219960082159610A4919601B
:100010000A490B480160002159600121996001BC27
:10002000002800D0004707480749086003C880F34C
:10003000088808470000001800031F00180200038A
:10004000F40000180001001008ED00E000000000BE
:1000500000000000000000000000000000000000A0
:100060000000000000000000000000000000000090
:100070000000000000000000000000000000000080
:100080000000000000000000000000000000000070
:100090000000000000000000000000000000000060
:1000A0000000000000000000000000000000000050
:1000B0000000000000000000000000000000000040
:1000C0000000000000000000000000000000000030
:1000D0000000000000000000000000000000000020
:1000E0000000000000000000000000000000000010
:1000F000000000000000000000000000A071FAAD48
:1001000000200420F7011010C3011010C5011010C9
:10011000C1011010C1011010C1011010C101101057
:10012000C1011010C1011010C1011010C701101041
:10013000C1011010C1011010C9011010CB01101025
:10014000CD011010CD011010CD011010CD011010F7
:10015000CD011010CD011010CD011010CD011010E7
:10016000CD011010CD011010CD011010CD011010D7
:10017000CD011010CD011010CD011010CD011010C7
:10018000CD011010CD011010CD011010CD011010B7
:10019000CD011010CD011010CD011010CD011010A7
:1001A000CD011010CD011010CD011010CD01101097
:1001B000CD011010CD011010CD011010CD01101087
:1001C00000BE00BE00BE00BE00BE00BEEFF3058054
:1001D000103800BEF2EB8871BCE81010E0E8101097
:1001E0003402101090A31AE700201F49086006C8C7
:1001F00081F3088810471D48006800282FD10DA4FE
:100200000ECC002902D000F012F8F9E71849194A7B
:10021000002000E001C19142FCD1174988471749ED
:1002200088471749884700BEFDE701C901C29A42C5
:10023000FBD37047E0E81010C000002090F50120CB
:10024000B0DD121000000420D406042084E4121053
:100250000010042028130420000000007047094803
:1002600007F0B0F90047000008ED00E0000000D002
:1002700090F50120042A0220495B10100D23101074
:10028000715C10105756000006005250ABB360531B
:1002900094DF101006005250861C0302ACDF1010D1
:1002A000060052505422A29DB4DF10100500525097
:1002B000DE65F468ACE71210F8B5C0460448054B9B
:1002C00010B5834203D0044B002B00D0984710BDDB
:1002D00090F5012090F50120000000000648074934
:1002E000091A8B10C90FC91810B5491003D0044B57
:1002F000002B00D0984710BD90F5012090F501200B
:100300000000000010B5074C2378002B09D1FFF73F
:10031000D5FF054B002B02D0044800E000BF0123AD
:10032000237010BDF8FA01200000000020DD10103D
:10033000054B10B5002B03D00449054800E000BF71
:10034000FFF7CCFF10BDC04600000000FCFA012002
:1003500020DD1010817C427C09020A43037E111CBF
:10036000002A00D101210122818411001940C162BB
:10037000D9100A40017D0263C27C09020A43111CA4
:10038000002A00D101210122818659101140C16348
:1003900019110A40817D0264427D09020A43111C41
:1003A000002A00D10121442281529910433A5B1165
:1003B00011401A400265C27DC164131C002A00D19D
:1003C00001235422DBB28352838B1A1C002B00D1F1
:1003D00001226023C2527047F0B54546DE465746BB
:1003E0004E460123E0B588278346F0240026984630
:1003F000A848A94D3F018DB05F4458445D44240591
:100400004246B2400300002192B20092019602904F
:100410001A68002A0DD01000009EB043000502D1DA
:100420001002000D0143100020408246224200D0FD
:10043000BFE018339D42EBD1019E3980013602980E
:1004400002370C2EDCD15A465946924B5846D358A7
:10045000924A8E583205120D0692F0223100120592
:10046000114000918E4945582905090D0A918D4981
:100470002F00445817402105090D0B912100114010
:100480008C46002B00D1F1E01A40924619051B0260
:100490001B0D029333021B0D07932B02090D1B0D3D
:1004A000039108938049230B1B05A04659445C46E1
:1004B0000022E3460993AC4604965546019730E086
:1004C000049E002E0AD0079E37000740BE4201D18D
:1004D000069E3343009E002E00D01BE26646002E8F
:1004E0000AD0089E37000740BE4201D10A9E33431E
:1004F000019E002E00D0C2E14646002E0BD0099E80
:10050000360DB1460640B14501D10B9E33435E46E0
:10051000002E00D099E201320B8002310C2A00D16A
:1005200056E101239340029E98B29E437342734169
:10053000039E5B423340002DC2D081263601A6596E
:10054000B1462E4208D03602360DB24600D13AE10D
:100550000640B24500D136E1544EA659B1462E426E
:1005600008D03602360DB24600D113E10640B2453E
:1005700000D10FE14E4EA659B1462E4208D03602A8
:10058000360DB24600D10AE10640B24500D106E17F
:10059000484EA659B1462E4292D03602360DB2468A
:1005A00002D00640B2458BD14E463605360D334358
:1005B00086E781205A46000112585046944602426E
:1005C00009D0120591464846120D002844D00098E3
:1005D0001040824240D05A46344812585046944601
:1005E000024209D0120591464846120D002838D023
:1005F00000981040824234D05A462D481258504636
:100600009446024209D0120591464846120D002830
:100610001DD000981040824219D05A4625481258E1
:1006200050469446024200D103E712059146120D4E
:1006300092464A46002A05D052460098024092450A
:1006400000D0F6E662461202120D1143F1E6624650
:100650001202120D1143E0E762461202120D11431D
:10066000B9E762461202120D1143C5E733021B0DB2
:1006700003932B021B0D9A46230B1B050493634621
:100680000948A04658445C460021AC46D346029631
:10069000019331E024080000840800003C080000B9
:1006A000540800006C0800009808000014080000BE
:1006B000180800001C0800006646002E08D05E46A0
:1006C00016405E4501D10A9E3343002F00D075E1EC
:1006D0004646002E0BD0049E360DB1461640B1455D
:1006E00001D10B9E3343019D002D00D07DE00131EF
:1006F000038002300C296BD001228A40029D002326
:1007000092B2002DD8D0039B93431E0073427341D5
:10071000069E5B423340009E002ECDD081263601DE
:10072000A659B1464D46009E2E4206D02D022D0DF3
:10073000AA4639D01540AA4536D09C4D6559A946E0
:100740004E46009D354206D035022D0DAA4630D0CA
:10075000154055452DD0964D009E6559A946354208
:1007600006D02D022D0DAA4628D01540554525D07E
:10077000904D009E6559A94635429DD02D022D0D04
:10078000AA4602D01540AA4596D14D462D052D0DFD
:100790002B4391E74E463605360D3343EAE64E4687
:1007A0003605360D3343F3E64D462D052D0D2B430F
:1007B000C3E74D462D052D0D2B43CCE74D462D05AA
:1007C0002D0D2B43D4E74E463605360D3343C3E695
:1007D0008B2200231201A350774AA3500DB0F0BC26
:1007E000BB46B246A946A046F0BD2E0081252D018C
:1007F0006559A946354206D02D022D0DAA4634D0A2
:100800001540AA4531D0694D019E6559A94635422A
:1008100006D02D022D0DAA462CD01540AA4529D070
:10082000634D019E6559A946354206D02D022D0D16
:10083000AA4615D01540AA4512D05E4D019E6559B5
:10084000A946354200D152E72D022D0D03D02A4092
:10085000954200D04BE74A461205120D134346E776
:100860004D462D052D0D2B43E7E74D462D052D0D4E
:100870002B43C8E74D462D052D0D2B43D0E7370000
:1008800081263601A659B1463E4206D03602360DC3
:10089000B2463AD00640B24537D0444E019FA659E1
:1008A000B1463E4206D03602360DB24623D006404F
:1008B000B24520D03E4E019FA659B1463E4206D0D9
:1008C0003602360DB2461BD00640B24518D0394E1E
:1008D000019FA659B1463E4200D10DE63602360DC3
:1008E000B24603D00640B24500D005E64E46360576
:1008F000360D334300E64E463605360D3343D9E711
:100900004E463605360D3343E1E74E463605360D85
:100910003343C2E7370081263601A659B1463E422D
:1009200006D03602360DB24635D00640B24532D03A
:100930001E4E009FA659B1463E4206D03602360DE5
:10094000B2462DD00640B2452AD0194E009FA65976
:10095000B1463E4206D03602360DB24616D00640AB
:10096000B24513D0134E009FA659B1463E4200D166
:10097000B4E53602360DB24603D00640B24500D08B
:10098000ACE54E463605360D3343A7E54E463605F3
:10099000360D3343E6E74E463605360D3343C7E79B
:1009A0004E463605360D3343CFE7C04614080000E7
:1009B000180800001C080000B408000081252D0163
:1009C0006559A9462F4206D02D022D0DAA462DD0DD
:1009D0001540AA452AD0424D6559A9462F4206D056
:1009E0002D022D0DAA4626D01540AA4523D03D4DF7
:1009F0006559A9462F4206D02D022D0DAA461FD0BB
:100A00001540AA451CD0384D6559A9462F4200D142
:100A10005EE62D022D0DAA4603D01540AA4500D052
:100A200056E64D462D052D0D2B4351E64D462D0521
:100A30002D0D2B43CFE74D462D052D0D2B43D6E72E
:100A40004D462D052D0D2B43DDE781265F463601F2
:100A5000A659B1463E4206D03602360DB24634D0D3
:100A60000640B24531D05F461D4EA659B1463E42C2
:100A700006D03602360DB2462CD00640B24529D0FB
:100A80005F46184EA659B1463E4206D03602360D94
:100A9000B24615D00640B24512D05F46124EA65956
:100AA000B1463E4200D136E53602360D03D0304025
:100AB000864200D02FE548460005000D03432AE595
:100AC0004E463605360D3343E7E74E463605360DBE
:100AD0003343C8E74E463605360D3343D0E7C046AC
:100AE00014080000180800001C080000002806D1A7
:100AF0008B231B01C9439C46C9B262449181704754
:100B0000FF20704710B502F097FF10BD70B5FF20B1
:100B100003F07AF9082003F059F9D0248023240641
:100B20005B0063620920636103F050F980239B003E
:100B300063620A20636103F049F98023DB0063628A
:100B40000B20636103F042F980231B01A36215208F
:100B500003F03CF9802380259B03ED0463621A2097
:100B600003F034F96562192003F030F980239B0407
:100B700063621B20636103F029F98023FA201B05BF
:100B80006362002163618000A56103F05DFF656120
:100B900070BDC046D023FF201B061A6A0240DA62ED
:100BA000802252009A61C046C046C046C046C04638
:100BB000C04659685A610840802189009961C04641
:100BC000C046C046C046C046C0465A685961120277
:100BD000104380B27047C04603002D20F0B55C7909
:100BE0001A5C002C09D0022422431A5404301C5CE5
:100BF00025382040082800D197E0187A002804D032
:100C00003120185C000700D469E0987B00280AD0E6
:100C100010203F2402431D301A540430185CA043B6
:100C2000802800D17EE0587C002807D03120185C55
:100C30007F2803D80820024325301A54DC8B98699A
:100C4000E50701D5401A9861C50F5D7730255D5DD8
:100C500000284CDBE00501D5988A9861586AAD06FA
:100C600026D53221595C00293ED11900C50F20310B
:100C70004D72002827DBD98DC80703D58020024399
:100C800053381A542C269E5D5D8DD009164201D032
:100C9000022211430227264E6A086408344032407B
:100CA00049083C433A433140DC835A85D985F0BD3D
:100CB0005D8DED07D9D5401A1900C50F2031586256
:100CC0004D720028D7DA1B485862087A0028D2D122
:100CD000203002430D301A542C380872CBE7012023
:100CE00002432C301A5490E701385862BDE711488E
:100CF0001E7F986140206F060BD5012702432D20EF
:100D00007E40D2B21E771A54D430FF300443DC83C5
:100D1000A0E7002E9ED102432D20D2B21A542C38C7
:100D2000187797E77F3818747DE70738D87164E73C
:100D30007F7F0000FFFF0000030070B50F2900D97E
:100D4000A5E0584A89005258974630229A5C0078AC
:100D5000D2075DD49A785B7890431340184357E0EC
:100D60003022825C407A91070DD4DC7A997AA043D4
:100D7000214052B20843002A05DA1A7F002A00D027
:100D80008DE07F32104031225F219A5C2D248A430E
:100D9000203A511E8A41072152428A43195DEF329F
:100DA0000A402C217F251A55595C11400D422FD144
:100DB000FF2115401D55DA8D8A43DA8528E030225F
:100DC0009A5C0078D20764D531229C5C273A224095
:100DD0002D25023A51424A41595DFC320A402C21EC
:100DE0007F265A55595C11400E4205D1FF2116400D
:100DF0005E55DA8D8A43DA850E2222400A2A03D014
:100E00000C222240082A03D10022DA7100E0C07AC5
:100E100070BD2D215D5C40222C009443007E143A6D
:100E20005C549A5C22405206F2D13F2216E0407E8A
:100E3000EEE78078ECE7007DEAE7808A000AE7E7E2
:100E40002D215D5C20222C009443406A0C325C54BE
:100E50009A5CC0B222405206DAD15F222A405A542C
:100E6000DA8DD2318A43DA85D2E7406A0012C0B205
:100E7000CEE73022805CCBE73122805CC8E72D22B0
:100E8000805CC5E72C228023805C1843C0E70020EB
:100E9000BEE799785A7888430A40104394E7802245
:100EA000104370E720DD101070B50F2904D87C4B7B
:100EB00089005B589F46427070BDFF21838A8B4337
:100EC00013438382F8E7017D12020A432D218282B7
:100ED000455C40232C009C434454143BC35C23409A
:100EE0005B0606D13F232B404354C38DD2318B4345
:100EF000C385002382610377DEE7037D12021A4374
:100F000082822D22845C4023210099438154143B2A
:100F1000C35C0B405B06CFD13F2323408354C38D7A
:100F2000D2329343C385C7E7FF252D21038C1202DC
:100F30002B401A430284465C202334009C434454D3
:100F40000C33C35C23405B0605D15F23334043541D
:100F5000C38DAB43C38528230021C1544262ABE754
:100F60003023C2549206A7D40122438D9343438574
:100F7000A2E7FF21038C8B43134303849CE73123B7
:100F8000C254253B13400C2B78D03F2311009943CA
:100F9000C02900D090E79206D20F02748CE7141C8F
:100FA0007F2A64D82D212C22435CA3437F24435401
:100FB000825C1A40144200D07EE7FF221C40445459
:100FC000C38D9343C38577E72C2154B2435C002C37
:100FD0004FDB934343546FE731238272C35C5F223C
:100FE0001900914320294DD02D21455C18222C0059
:100FF000944344541432825C2240520606D1672244
:101000002A404254C28DD2318A43C2853F22934343
:10101000802B00D050E7002303744DE7312342704A
:10102000C15C273B0B402D24023B5A425341025DD9
:10103000FC3313402C227F250355825C1A40154255
:1010400005D1FF221D400555C38D9343C3850E2353
:101050000B400A2B04D00C230B40082B00D02BE7AD
:101060000023C37128E7C27226E7827024E77F2439
:1010700098E77F242240134343541DE79307DB0F77
:10108000C37182E72D22845C10232100994381548F
:101090001C33C35C0B405B0600D00DE76F233CE7BD
:1010A00060DD1010C38C828C08339BB2C3849A42DB
:1010B00005D800230122C384836A53408362C38E10
:1010C000828E08339BB2C3869A4205D80023012240
:1010D000C386836B5340836346224421835A08337B
:1010E0009BB28352415A994205D800238352836CA4
:1010F000453A5340836456225421835A08339BB2A5
:101100008352415A994211D800238352C26D013350
:101110005340C365012A09D08021826D8902D3081A
:1011200053405B040B4053405B0883657047C046E7
:1011300010B5037C04000F2B12D80E2B04D00F2BFC
:1011400010D0E418607C10BD027E5206F9D44268CB
:10115000002A14D0C16800209047237CE077F0E794
:10116000FF20F0E7027E7F2AEBD84268002A09D0F0
:10117000C168012090472023E054237CE1E7FF224F
:10118000C277DEE72022FF218154DAE710B5037C25
:101190000F2B00D910BD434CC218E45C21405174A0
:1011A000847C417C24022143027E0C1C002968D0EF
:1011B000012184840C001440C462D4102140047DB9
:1011C0000163C17C240221430C1C002957D001215A
:1011D000848654100C40C46314112140847D016442
:1011E000417D240221430C1C002946D04421445255
:1011F000433994100C40C46454112140C47D0165EE
:10120000211C002C30D05424C9B20153818B0C1CFA
:10121000002913D0602144520D2B14D00E2B32D054
:101220000F2BB7D152B2002AB4DA8368002BB1D0A9
:101230002021C268415C01209847ABE7012460216E
:1012400044520D2BEAD1002364228354023283548A
:10125000837F1A0704D50122110019401A421ED0BB
:1012600065230122C25495E701215424C9B20153D8
:10127000818B0C1C0029CDD1E0E70124B6E70124C5
:10128000A5E7012494E7520600D483E78368002B86
:1012900000D17FE7C268C17F002098477AE76523C5
:1012A000C15477E7DCE31010802270B5344D0400A0
:1012B0002800FF21520107F029F900238022A350C2
:1012C0000432A3500432A3500432A3500432A3507A
:1012D0000432A3500432A3500432A3500432A3506A
:1012E0000432A3500432A3500432A3500432A3505A
:1012F0000432A3500432A3500432A3500432A3504A
:101300000432A3500432A3500432A3500432A35039
:101310000432A3500432A3500432A3500432A35029
:101320000432A3500432A3500432A3500432A35019
:101330000432A3500432A3500432A350114B256051
:10134000A5602561A5612562A5622563A563256465
:10135000A5642565A5652566A56625676360E360C8
:101360006361E3616362E3626363E3636364E36451
:101370006365E3656366E3666367E367A56770BDFE
:101380004C0E02204CFE0120F0B5C6460F2300B5DE
:101390000B40057C083BDBB2040016002800072B3D
:1013A00000D994E0584A9B00D3589F460123194026
:1013B0008D4200D02174080009E0EB005B1B012581
:1013C0009B00E31823331A782940AA431A70002996
:1013D0000ED180BCB846F0BDEB005B1B01259B0025
:1013E000E31823331A782A431A7001231940F0D0E6
:1013F000C3000500984615E0EB005B1B02259B002F
:10140000E31823331A78AA431A7001231940DEE740
:101410000221EB0098465B1B9B00E31823331A78EC
:101420000A431A7043465F1BBF00E7193B00223393
:101430001B78002BCDD03B0021331B78002BC8D16B
:10144000952EC6D97B7D002BC3D03B0023331B7860
:10145000032BBED13B0024331B78002BB9D03200C4
:10146000F98B2A4807F01AFA7B7DF88B002B06D0FF
:10147000BB210130490106F0D7F888B2F883434612
:10148000BB225B1B9B00E418217F520149084A43A1
:10149000E36A9B181E542300012220331A70002394
:1014A0002434237095E7EB005B1B194A9B00E3187B
:1014B0009A61012319408AE72022EB005B1B9B0005
:1014C000E3185A7500229A61012319407FE7CB0780
:1014D00000D47EE74B100321EA009046521B920095
:1014E000A2180B40107F04331B1A1940012906D0A3
:1014F000032997D1002895D00138107792E7432827
:1015000090D8013010778DE73CE11010A0DD10106D
:10151000C62D0000F8B5CE464746BE4B80B5CB1869
:101520009BB2FF2B13D80F2B2ED8C9B2002A00D1A3
:101530006AE00430FFF700FCFF22D02314001B06F2
:10154000196A8C43DC6219694840024013E00C05BB
:101550000B0B240D002A34D0AF4ADB00C3189B5874
:10156000FF22195DD0231B06186A14008443DC6235
:10157000186941400A40DA618022D2009A615A61BA
:10158000C0BCB946B046F8BDA44CA54B0C19C35C11
:101590000F2C4FD8002B00D194E00F23CDB219406F
:1015A000002A00D19AE09E4BC6180B00347C083B01
:1015B000DBB22000072B00D911E29A4A9B00D358D6
:1015C0009F46D022FF251206166A3540D562802537
:1015D000ED009561C046C046C046C046C046C04604
:1015E000566855618C4ADB008218D3185B681E551B
:1015F000D023DB019C468C4B614489B29942BFD811
:1016000001228A4BC254BBE7D023FF221B061C6A6F
:1016100022408024E400DA629C61C046C046C04695
:10162000C046C046C0465A6804305C61D2B2FFF77B
:101630003BFCA5E7002B45D0002A67D17C4B9942A3
:1016400000D190E100D91FE1023B994200D156E15F
:10165000784B994200D093E7774A6F4B8118774ACD
:10166000C31882180A60764941180A605A661A66D9
:10167000744A8418744A270082181460734A8218C6
:101680001460734A8118734A884682180E00944683
:101690001500DF6647469C666F4C041921606F4C4D
:1016A00004192760196793216446490141185E6750
:1016B0000A606B4941180C609A670022DD67694B2C
:1016C000C2525DE7002A00D15AE7FF22D023100062
:1016D0001B06196A8843D86219694BE7D023FF2299
:1016E0001B061C6A22408024E400DA629C61C0462A
:1016F000C046C046C046C046C0465A685C61484BBA
:10170000D2B29C466044FFF73FFE39E7FF22554BBB
:101710001140C45A544BC3585918D0231B06095DB5
:10172000186A22E701231D40AC4200D0357428001E
:1017300009E00121E3001B1B9B00F31823331A78F7
:101740000D408A431A70002D55D10400E7003D1B5F
:10175000AD0075192B00802224331A70013B1B78D1
:10176000012B00D156E1022B00D159E1002B42D1CF
:101770002B0022331B78002B00D153E16B7DE98BCA
:10178000002B06D0481CBB21490105F04DFF89B252
:10179000E983BB223B1B9B00F3181C7F52016408AA
:1017A0006243DB6A9B18585CFF22D02314001B069F
:1017B000196A8C43DC6219694140DBE62022E300B0
:1017C0001B1B9B00F3185A7500229A6101231D40D0
:1017D000B9E7E3001B1B254A9B00F3189A6101231C
:1017E0001D40B0E70221E3001B1B9B00F3182333CD
:1017F0001A780A431A700020D6E70221E3001B1B67
:101800009B00F31823331A788A431A7001231D4072
:1018100099E7C04600FDFFFF68110000F0FCFFFFE4
:10182000A87B01005CE11010DF270000907B010025
:1018300082030000810300004812000080D20000F3
:101840004C12000080E20000501200005412000010
:1018500080F2000080020100581200005C120000BB
:1018600064120000927B010084120100C62D00006A
:101870000121E3001B1B9B00F31823331A780A4352
:101880001A7001231D405EE7714B994200D077E644
:10189000704A714B8118714AC31882180A607049E6
:1018A00041180A605A661A666E4A84186E4A270002
:1018B000821814606D4A821814606D4A81186D4A4E
:1018C000884682180E0094461500DF6647469C66DF
:1018D000694C04192160694C041927601967932128
:1018E0006446490141185E670A60654941180C6009
:1018F0009A678022DD67634B5200C25240E6624B1A
:10190000C258564BC518002A00D097E08021554B8D
:101910004901C7185D4B0C009C465D4B99464D4EE6
:101920004D4BB0468044464632604D4EC318B046DB
:1019300080444646356065465D664D461D664A4DA7
:10194000451929604A4D49494619C0254118AD013C
:101950000F608021AC46474D890145195118B046AA
:101960006244AC4695E6484BC2583C4BC118002A2D
:101970002CD180253B4B6D01C718444B2C009C4655
:10198000434B9946334E344BB04680444646326012
:10199000334EC318B04680444646316061465966AE
:1019A00049461966304941180D60314D2F49461995
:1019B000C0254118AD010F608021AC462D4D890135
:1019C00045195118B0466244AC467EE780235B015E
:1019D000D418244B8C4691462500C718D2E7ED0752
:1019E00000D4B3E6E3001B1B9B00F3181A7F4B10D7
:1019F00003219B1A0B40012B16D0032B00D0FAE6D3
:101A0000002A00D1F7E619336343013AF3180020A6
:101A10001A77C9E62B00213318786B7D1843C3E68B
:101A20008020C1E6FF20BFE6432A00D9E3E61C235D
:101A300063430132F31800201A77B5E680235B0177
:101A4000D418084BAC4691462100C71867E7C0463A
:101A500083030000481200006811000080D20000DB
:101A60004C12000080E200005012000054120000EE
:101A700080F2000080020100581200005C12000099
:101A800064120000927B0100801201004CFE0120D4
:101A90004C0E0220F0B5DE464E4657464546894676
:101AA000E0B504000125002187B0DF4A06F02EFDD5
:101AB0004A46DE4B0432E554DD4B2700E31843CAA7
:101AC00043C3DC4B3837E31803CA03C34B461A6AD7
:101AD000D94BE2504B469A6AD84BE250FFF716F8C2
:101AE00000213322601D06F011FDFF232371637373
:101AF00001235B422383A3844B46DE6900212572C8
:101B0000E57265742575301C06F03CFC002801D098
:101B1000FE26B6050021CA4A380006F0F7FCC94B7C
:101B20000125E363C84B646423643823E5545833C8
:101B3000E55010333800E650FEF70CFC23009D33CF
:101B40001D70C24BE5182800FFF7AEFB9423C0229E
:101B50005B01E61800211202300006F0D7FC80225B
:101B6000BB4BD201E7180021380006F0CFFCB94B7F
:101B7000E3181E605E60B54B6E60E650B64BE2182F
:101B80008A239B01E31813605360EB60AB60B34B97
:101B9000E218CA239B01E318136053606B612B6149
:101BA00090235B01E2188523DB01E3181360536087
:101BB000EB61AB61AA4BE218A523DB01E3181360CC
:101BC00053606B622B62A74BE218C523DB01E3185D
:101BD00013605360EB62AB62A34BE218E523DB01B9
:101BE000E318136053606B632B6391235B01E2186E
:101BF0009E4BE31813605360EB63AB639C4BE2189E
:101C00009C4BE318136053606B642B649A4BE2188F
:101C10009A4BE31813605360EB64AB64984BE21883
:101C2000984BE318136053606B652B6592235B013F
:101C3000E218954BE31813605360EB65AB657E4B80
:101C4000E358002B00D090E18020904A4001A11879
:101C50008F4A94468F4A924602008F4EB046A04467
:101C6000464633608D4EB046A044464637606646D1
:101C70006E6656462E668A4D002665192A60894A88
:101C80000125A2181160884AA21803C2802292017D
:101C90009818864AA2181060854AA118854AA21889
:101CA0000A608549611805C1C022920194469322B9
:101CB00052016344A2181360804AA118804AA218F6
:101CC0000A608F21490161180B608B231B01E71803
:101CD0004A60380000217B4A06F018FC7A4B7B48AA
:101CE000BB6086237A495B01E31818605960794B21
:101CF00005979C4638230393634602934B4604930F
:101D00000822029993460832924610320800914602
:101D100020320C23904620300191019A1278202A1B
:101D200009D02F009F408B21043292003743A21824
:101D30002F4309015750019A127A202A0AD02F0006
:101D40009F40022137430F438B2104329200A21897
:101D500009015750019A127C202A0AD02F009F4077
:101D6000042137430F438B2104329200A21809014A
:101D70005750019A127E202A0AD02F009F405946C0
:101D800037430F438B2104329200A21809015750A8
:101D90000278202A0AD02F009F40514637430F4334
:101DA0008B2104329200A21809015750027A202A8E
:101DB0000AD02F009F40494637430F438B210432FE
:101DC0009200A21809015750027C202A0AD02F0045
:101DD0009F40414637430F438B2104329200A218A3
:101DE00009015750027E202A0AD02F009F408021EF
:101DF00037430F438B2104329200A2180901575038
:101E0000019A0133013201920130142B85D18023D4
:101E10005B049C46029B664440330293039B782BF1
:101E20005AD0782303936BE7E07B0100681200002F
:101E30006C12000078120000801201008412010070
:101E400078080000010B1010ED0A10106811000056
:101E500080D20000E8110000F0110000F81100002D
:101E6000081200001012000018120000808200000A
:101E700028120000809200003012000080A20000B2
:101E80003812000080B2000080C2000080E2000032
:101E90004CFE01204C0E0220481200004C120000A3
:101EA0005012000054120000D0110000581200001F
:101EB0005C12000080F20000D811000064120000E3
:101EC00080020100B8080000368200001000010105
:101ED00004000102CCDD1010049B3B4A9946942378
:101EE0001B01E3181A60E023384A1B01E3181A604B
:101EF000374B384AE3181A60374B384AE3181A60F0
:101F0000374B384AE3181A60059F374B37483B6315
:101F1000374B38493B66384B384ABB62384B3B62DB
:101F200090231B01E31818605960364B3648FB6557
:101F30008F2336491B01E31818605960344BBB648A
:101F40000023A350334AA354334AA3524B461B7871
:101F5000002B13D14B465B78002B1ED107B0F0BC91
:101F6000BB46B246A946A046F0BD80222B4952018D
:101F70009A181000BC469A4661186EE6284B142247
:101F8000E5180021280006F0C1FA01236B70063322
:101F9000AB604B465B78002BE0D00125214B2F2214
:101FA000E018002106F0B2FA1F4B1B22E5541F4B2C
:101FB0000021E01806F0AAFA1D4B9C46E554802348
:101FC000644465732374C9E7101000001000020018
:101FD000FC0D000010000800040E000010000400BA
:101FE000080E000010800000200002002080000287
:101FF0000220000202000402028000028812010096
:10200000020008024000040280200002800002005A
:10201000012000028C120100927B010080E200008E
:10202000947B0100A97B0100A87B0100BD7B01001E
:10203000BC7B0100F0B5FF23C64600B54360224BD0
:1020400080278360FF231B02C36001230025838256
:102050007F0020330761C5540300002624334584E4
:102060005E723623C58505638586C654023398465D
:102070008044434604001E7410220021493006F0BB
:1020800045FA4046FEF766F99C23E75223009E334B
:102090001E700E4BE35C002B07D00D4B9C46E654A4
:1020A00007236444E5606560A360D0248025FA209E
:1020B000ED042406A5610021800002F0C5FC6561E5
:1020C00080BCB846F0BDC04601000001957B010010
:1020D000947B010010B58CB06C461E220021A01C20
:1020E00006F014FA0223FF332380064B694604935B
:1020F000054B06480893064B0A93FFF7CBFC0CB040
:1021000010BDC046050B1010109D0120281F002097
:10211000109B0120A42370B55B00984200D191E090
:102120007F282FD84B4B1A5C03231340012B48D038
:10213000022B00D12038484A484BD358984200D14E
:1021400076E0474BD358984200D173E088235B0177
:10215000D358984200D16FE0424BD358984232D0C6
:10216000414BD358002B40D0404BD358002B65D067
:102170003F4BD358002B63D03E4BD358002B19D183
:10218000033333E0A2235B00984208D013DD4623DB
:10219000FF339842CFD13048FFF74CFF0AE0D024FC
:1021A0008025FA2024062D050021A561800002F07B
:1021B0004BFC656170BD03003B3BFF3B082BF9D92D
:1021C000B9E72030B7E703218B231B01D0182A4A37
:1021D0004B009446046845685B18DB00C3186344F1
:1021E0001C605D60FEF7F8F8E4E700235900C918A9
:1021F000C9001A4B5418E31818601B4B0430E5183B
:1022000083008B20D31800011B5810182B601A4B29
:1022100041189C460268436861440A604B6087230A
:102220005B019C46002364442370FEF7D5F8C1E7A8
:102230000021C9E70121C7E70221C5E70123D5E74E
:102240000223D3E700200D4B0A220100D86003F0DF
:1022500019FCFEE7B9E71010281F0020D01000007D
:10226000E810000018110000D4100000EC1000006D
:10227000041100001C110000280800000080054027
:1022800010B57F2807D8174B1A5C03231340012B86
:1022900024D0022B24D0144B144A9A58904203D1D4
:1022A0008722012152019954114A9A58904202D131
:1022B0000121104A9954882252019A58904202D121
:1022C00001210D4A99540D4A9A58904202D1012198
:1022D0000B4A99540B48FEF77FF810BD2030DAE71F
:1022E0002038D8E7B9E71010281F0020D0100000D0
:1022F000E8100000F8100000101100001811000094
:1023000028110000D82700207047C046F0B5DE46EF
:10231000454657464E46E0B50D20ABB003F09CFB5A
:102320000A2002F0FFFB074D29ABAC6A28AA200067
:1023300027A901F0EBFB002808D12100024803F097
:102340009BFCC0465CED012094DE1010299A289970
:10235000279801F09FFB06F0ADFA0AF0C3FDDF48B5
:1023600006F0B4F9DE4C0021200024224030256024
:1023700006F0CCF80222DB4B1025E3630123A264B4
:102380000C32E26404322265063AA2655032A3544C
:102390006364656501F0FEFD060001F0FBFD3100A0
:1023A0000200200006F0F2FBCF4C08222100CF48AB
:1023B00007F0AEF803230093C823CD4A21009B0009
:1023C000CC480BF06DFCCC4806F080F9CB4BCC48E8
:1023D0001D6006F0AFFBFFF77DFECA4BCA4A9A4666
:1023E0001592CA4ACA4B1492CA4A17932092CA4AF3
:1023F000CA4B1692CA4A9B462192CA4ACA4F229297
:10240000CA4A24972392CA4A0F92CA4A0992CA4AD0
:102410001292CA4A139252461092C94B9C269B6A4A
:10242000D0240593239B109D9846F601240680270F
:10243000BF03A761FEF7AEFB626828801205D20FCA
:102440000100AA7028006761FFF764F8BD4BEF58E0
:10245000BB0601D100F01DFD7F231A003A403B422C
:1024600024D19A2198206B5A08339BB26B52285A78
:1024700098421BD89C209E236A52295CEA5C002962
:102480000BD101321F310A40EA54013BEB5C002BB7
:1024900003D01F2A01D101232B5456231799EB5C3B
:1024A0008C465B0163449A5C9F23EA545B465A4620
:1024B0001B780133DBB213702E2B01D100F03DFDF0
:1024C000A14BEB5C002B01D100F09DFC7B0601D001
:1024D00000F099FC9D4AAB58002B05D0013BAB5056
:1024E000002B01D19A4AAB5404211498FEF774FBD7
:1024F00080239B04002801D000F092FC63612B7DB7
:10250000002B01D100F092FCAA7929796B799143D3
:1025100013401943EB7A002B01D100F0A7FD4823AB
:10252000E954143BEF5C6B7BA97B9A465246EB7BEC
:1025300019409A437BB21143002B01DA00F05FFD92
:1025400001220723100094468B220B409840814BB8
:102550005201EB5AAA5A81469A4201D100F072FD0B
:10256000624660461A40184201D07B4AAA5A980730
:1025700002D57A48285A0243580702D57848285A83
:102580000243180702D57748285A0243D80602D5D5
:102590007548285A0243980602D57448285A0243BF
:1025A000580602D57248285A0243180602D57148C7
:1025B000285A0243D80502D56F48285A0243980585
:1025C00002D56E48285A0243580502D56C48285A4D
:1025D0000243180502D56B48285A02436A482A521A
:1025E00002382B52504640230340484680B2904266
:1025F00001D100F032FD0822080090430022002B98
:1026000004D001234A06D20F5A40D2B23623EA54EC
:10261000BF0700D476E2AB7C002B00D072E25B4BAC
:10262000EB5C002B00D173E24027169B0F401B7818
:10263000BB420DD0564AAB5C002F01D100F042FDE9
:10264000012121980B43AB5406F040F8169B1F70F4
:10265000434619784E4A0131C9B21970AB5C34292E
:1026600001D100F049FD022213402A7C002B01D148
:1026700000F014FD002A01D000F070FD3523EB5C62
:10268000DB06DB0FAB7401232B742E4BEF582D4B65
:102690000137013EEF50002E00D0C8E6059B109890
:1026A00098463C4BC35C002B00D148E120213A4ABC
:1026B00084468358042719400C913F2101330B4075
:1026C0008350364B0022C45C5B46A14634493548F2
:1026D00061440B9160440D9266E0C04674DE1010B8
:1026E000BC24022000002050681E00207CE1101055
:1026F000A80B00208808002084DE10100020034072
:10270000C1000020281F00209CE310102C1F002077
:102710009CE11010601F0020FB290220012A0220EA
:1027200050DE101064DE1010788F0120022A022083
:10273000A8E90020A8E50020A8C90020A8CD002015
:1027400000400540D87B0100A87B0100C07B010050
:10275000BD7B0100BC080000481100004A110000C8
:102760004C1100004E1100005011000052110000E9
:102770005411000056110000581100005A110000B9
:102780005C1100005E11000062110000957B0100E9
:10279000947B0100907B0100881201008C120100E3
:1027A00080B2000090120100259300230D9C9A46F0
:1027B000E2100733089393009B180722DB00634461
:1027C0000A9363101A4000266346010000258346E1
:1027D0000E92039611934B461F4200D1C4E1602034
:1027E00004000B9B5B5D1C40A4461A005CB21842BF
:1027F00000D0D9E118221A40102A00D16EE200D987
:1028000029E2002A00D158E207261E4003963B40E9
:10281000002C00DA2AE2002B00D044E253461C01CF
:102820001B190B7053465046E4B223434B700443CC
:1028300001358C700331282DCDD15846119B0B9A50
:102840009C460D9B283201330D930B927830C82B98
:10285000ABD118004B460E93259B24999B46C21082
:1028600093009B18AC4ADB00944663440593002315
:102870000724994607330B930340069343101C40EB
:102880005B460A00002600258A4683460D94119374
:102890000599109B8C4694215B19490163448C4631
:1028A000634419780223069C334200D00D9C012317
:1028B00004200E9F3340384200D19CE212980390CE
:1028C000002B01D0139B039360231F000F40BC46D5
:1028D00048B20B4200D00CE218230B40102B00D161
:1028E000EEE200D9BCE2002B00D1D8E20726042397
:1028F0000E401940002800DA8BE3002900D0BCE22A
:102900004B461C011B19DBB213704B464846E4B220
:10291000234353700443013594700332282DB7D1FB
:1029200058465146119B01309B467831E02896D19C
:102930007A4B10990E9ACA540022794BCA548B21B3
:10294000109A090113008C4663441C685D68872354
:102950005B01D35C002B29D01300724A9446634478
:102960001A685B68AB4211D801D1A2420ED8109808
:102970006D49415818910021199118981999121808
:102980004B419D4202D811D194420FD90021109E93
:10299000664BB446F150664B0022F150002361486B
:1029A00060440260436087235B01F154614B109ADD
:1029B000D35C002B28D013005F4A944663441A6806
:1029C0005B68AB4211D801D1A2420ED8109856498B
:1029D00041581A9100211B911A981B9912184B41CA
:1029E0009D4202D810D194420ED90021109E534B23
:1029F000B446F150524B0022F15000234E4860443F
:102A0000026043604B4BF1544E4B109AD35C002B49
:102A100028D013004C4A944663441A685B68AB4262
:102A200011D801D1A2420ED810983F4941581C91AB
:102A300000211D911C981D9912184B419D4202D8EE
:102A400010D194420ED90021109E404BB446F15053
:102A5000043BF150002200233B4860440260436085
:102A6000384BF1543A4B109AD35C002B2AD0130008
:102A700089225201944663441A685B68AB4211D8BC
:102A800001D1A2420ED81098274941581E91002129
:102A90001F911E981F9912184B419D4202D811D1C7
:102AA00094420FD90021109E2A4B8920F1502A4BC5
:102AB000B446F150002200234001604402604360AC
:102AC000234BF1548B239C221B019C460023D201F3
:102AD000A4185D411098604404604560FDF77CFCDB
:102AE00001200021404208F0F1FB9C201B4BC0015B
:102AF0009B6A4044C01A002800DC8EE4C11701F034
:102B0000A3FF8AE4164B6873EB5C002B00D08BE5C7
:102B1000144BEF58BBE5C04680BB00008C1201008F
:102B2000907B0100D8100000B8080000D41000000D
:102B3000D0100000F8100000F0100000EC100000B1
:102B4000E81000001011000008110000041100003E
:102B5000281100001C110000181100000040054061
:102B6000957B0100D87B0100CE22120294460222FE
:102B70000A9B03985B1963441B78024266D00600E7
:102B80000E9C01220998324200D00F98FE26DA00EE
:102B9000B60032402243825C602004001C40A44600
:102BA0005CB2184200D125E6089E50463300002C46
:102BB00004DA072358407340C0B2DBB2202414402B
:102BC00026001024144007940824144006943C0066
:102BD0001440059402241440A44601242240039C7E
:102BE000274203D00C9C002C00D003001C00002EB8
:102BF00000D1E6E02401079EE4B204941C00002EFC
:102C000075D0049E26430E70069E0400002E00D050
:102C10001C002401059EE4B204940400002E00D0A0
:102C20001C00049E344366464C700400002E00D005
:102C30001C002401E4B2002A00D1F8E51C43013550
:102C40008C700331282D00D0C5E5F6E507240D9AD8
:102C50000600144095E7182A1CD107221A403B00B1
:102C60009146039A1340002C00DBD4E5544607221A
:102C70005440E4B2002B17D02000089B5340DBB235
:102C80000C9A002A00D195E02301E4180C704C70D6
:102C9000DCB2CCE53A00039B1A40002C00DA9EE03F
:102CA000002A00D1BAE5544620002301DBB22343B9
:102CB0000B7004014B70E4B2B9E507221A403B00E7
:102CC000039808920340002C7DDB002BEBD1534688
:102CD00052461B01134350460B70EAE707221A4085
:102CE0003B009246039A1340002CEEDABEE7040044
:102CF00087E7002800DAABE048460B9BFE27C900B7
:102D0000BF0039402143039C0227615C20240C4012
:102D10000A9410240C40089408240C4007940424BE
:102D20000C40049401240F40214003910421BC462F
:102D3000314203D00C99002900D003000A991C00ED
:102D4000002900D163E12401E1B20F0008991C00C1
:102D5000002900D19BE0390021431170079904003C
:102D6000002900D01C002401E1B20F0004990400E6
:102D7000002900D01C003900214351706146040035
:102D8000002900D01C0003992401E4B2002900D1DD
:102D9000C0E51C43013594700332282D00D077E53F
:102DA00058465146119B01309B467831E02800D0AF
:102DB00055E5BDE52201A618D2B204920E7000229C
:102DC0002FE7040016E7544607204440E4B2002BE6
:102DD00000D169E713004340DBB2200050E707232E
:102DE00054465C40E4B2002A00D15DE7089A200016
:102DF0005340DBB244E709980390002B00D163E510
:102E00000F9B039360E5BB0700D040E404211498B6
:102E1000FDF7E2FE80239B04002801D1FFF76EFB43
:102E2000A3612B7D002B01D0FFF76EFB209F3800A4
:102E3000FEF77EF93B003422383B9F5CFA0704D54D
:102E40005A7A002A01D1FFF76EFB1871FFF76BFB6E
:102E5000072348460B9F58407B40C0B2DBB24DE78A
:102E6000182B3DD107230B400E9304233340002839
:102E700000DADAE0002B00D142E54C4620002301C5
:102E8000DBB22343137004015370E4B242E5040043
:102E900061E728003830FEF705F9FFF7DDFA072370
:102EA0000B400B9304233340002831DB002BE4D18B
:102EB0004B4649461B01DBB20B4348461370E2E721
:102EC00007230B40994604233340002820DB002BC6
:102ED000D3D14B4649461B010B4348461370D2E7FA
:102EE00004213140002800DB07E507234C465C4005
:102EF000E4B20029C2D020000B994B40DBB20C9900
:102F0000002912D02301E41814705470DCB201E5DA
:102F10004C4607214C40E4B2002BAFD00B9B200065
:102F20004B400C99DBB20029ECD121016718C9B2E2
:102F300017700F00002103911DE76233EA588F3BA1
:102F40001A40924651466A6E2B6E00201343AA6EB9
:102F50000A431A420CD05123EA5CD30600D5BFE0E5
:102F60000F231340159A9B00D058002105F0C4F997
:102F700051466A6F2B6F1343AA6F0A431A420BD054
:102F80005223EA5CD30600D5B0E00F231340159A14
:102F90009B00D15805F0B0F98023EA580433EB5870
:102FA00051461A438823EB58194311420BD053233F
:102FB000EA5CD30600D58DE00F231340159A9B00E1
:102FC000D15805F099F9A023E95805F0ACF9A423EC
:102FD000E850714BEB589A46002B0BD06F4B704961
:102FE000EF5805F0A0F905F0FDF93900C0B2D0475F
:102FF0006C4BEF5800235A461370FFF761FA2023F9
:10300000EB5C002B5AD17F331940FFF799FA04008B
:1030100099E64C4607204440E4B2002900D12DE750
:103020000B9B4340DBB2200069E74C4607214C4034
:10303000E4B2002B00D121E707210B9B20004B407D
:10304000DBB25CE7584B5046EA5A402303404846FF
:1030500080B2904201D0FFF7CEFA08200022084348
:10306000002B01D1FFF7D2FAFFF7CBFA2800383056
:10307000FEF78CF82B7D002B00D1D7E63423EF5CD4
:10308000FFF751FA02208343AB54002979D04B4615
:103090000139E9504346049A1A702A7C002A06D066
:1030A0003523EA5C0123D206D20F5A40D2B2002364
:1030B0002B743C4BAA74EF58FFF7E9FA80231943AD
:1030C000FFF73EFA012122988B43AB5405F0FEFA3C
:1030D000FFF7BCFA9F23EB5C159A9B00D15870E771
:1030E0009F23EB5C159A9B00D0583EE79F23EB5C37
:1030F000159A9B00D1584DE701218A46194230D0DC
:103100002A49695800292CD029482858039081421F
:1031100027D907002748284928588946C05D69589B
:10312000084184465046674638400490504638422D
:10313000A8D00220844660460343AB54002917D12F
:1031400007234A460398AB50194B0130E8504346D9
:1031500019702A7C002A01D1FFF790FA0023FFF7AB
:1031600091FA02224146134000220A70FFF77DFACD
:103170004B4601394246E950002313702A7CFFF781
:1031800079FA07234A460398AB50094B0130E850BF
:10319000434619702A7C81E7781200007C120000F7
:1031A00000007F43D87B010062110000A07B01007A
:1031B000987B0100A47B01009C7B0100F8B5160000
:1031C0000822037805000C001A4202D009780A424E
:1031D00018D05BB2002B1CDBAB78002B22D1EB7834
:1031E000002B44D12B79002B66D16B79002B00D0BA
:1031F0008DE0AB79002B00D0B5E0EB79002B00D04F
:10320000DCE0F8BDE420FF30B0472B785BB2002B48
:10321000E2DA23787F2BDFD8E820FF30B047AB78A5
:10322000002BDCD0A2789A42D9D0E2789A42D6D04C
:1032300022799A42D3D062799A42D0D0A2799A4226
:10324000CDD0E2799A42CAD022222F7886493A40DC
:10325000501E824158000918885C002800D0E4E024
:10326000802040001843B047EB78002BBAD0A278FA
:103270009A42B7D0E2789A42B4D022799A42B1D039
:1032800062799A42AED0A2799A42ABD0E2799A4260
:10329000A8D022222F7874493A40501E824158000B
:1032A0000918885C002800D0C7E08020400018433F
:1032B000B0472B79002B98D0A2789A4295D0E2782B
:1032C0009A4200D191E722799A4200D18DE7627942
:1032D0009A4200D189E7A2799A4200D185E7E27942
:1032E0009A4200D181E722222F785F493A40501E4E
:1032F000824158000918885C002800D086E08020B0
:1033000040001843B0476B79002B00D171E7A278D9
:103310009A4200D16DE7E2789A4200D169E72279BA
:103320009A4200D165E762799A4200D161E7A279B9
:103330009A4200D15DE7E2799A4200D159E7222210
:103340002F7849493A40501E824158000918885C3C
:10335000002800D080E0802040001843B047AB79BF
:10336000002B00D149E7A2789A4200D145E7E278E4
:103370009A4200D141E722799A4200D13DE7627931
:103380009A4200D139E7A2799A4200D135E7E27931
:103390009A4200D131E722222F7833493A40501E19
:1033A000824158000918885C00284ED180204000D6
:1033B0001843B047EB79002B00D122E7A2789A425C
:1033C00000D11EE7E2789A4200D11AE722799A42A8
:1033D00000D116E762799A4200D112E7A2799A42A7
:1033E00000D10EE7E2799A4200D10AE722222C7836
:1033F0001D492240501E824158000918885C00284F
:103400000CD10130FF301843B047FAE611233B429C
:1034100000D177E74F339843B04774E71123234235
:10342000F2D04F339843B047EBE611233B4200D133
:1034300019E74F339843B04716E711233B4200D1B9
:1034400036E74F339843B04733E711233B42B0D0C0
:103450004F339843B047ADE711233B4200D17DE79E
:103460004F339843B0477AE7F8E31010F0B5CE46F3
:10347000474680B583B06B4604000D009A1D01A934
:1034800007F0E8FB2900200009F072F8002804D1B9
:103490000023164FFB56012B08DD2900200009F000
:1034A0007DF803B0C0BCB946B046F0BD1A019046E5
:1034B00041460F4E22022A438A536A469288464466
:1034C00091466A46D288DBB294464A466146120467
:1034D0000A43726033727072F0600133624649468B
:1034E00004483B7005F0DAF9D7E7C046FF2902200F
:1034F00074290220C8DE1010F0B5C64600B50400DD
:103500000D001700984609F033F8002819D001285B
:1035100006D02900200009F041F880BCB846F0BD73
:10352000B44E38003100B44AFFF748FE390030008D
:10353000B24AFFF743FE08223900300004F0ECFFE6
:10354000E7E70021AE4B220259562A43002900DC4E
:103550004CE1AC4B1E8896423DD0012900D145E19B
:10356000198A914200D041E1012109015A1852689B
:10357000A54EB24200D184E02FD8A44EB24200D171
:10358000C7E04ED8A24EB24202D0A24EB242C0D143
:103590004246092ABDD1BA78160702D40F2010403E
:1035A00001305A185072012238780240860702D53D
:1035B00002263243D2B2060702D508263243D2B2DF
:1035C000102606422BD14026064200D0324340B29C
:1035D00000284FDA4CE00021C7E78F4EB24274D08A
:1035E00000D9BCE08D4EB24200D092E742460A2A92
:1035F00000D08EE77A7916097F2A00D8701C5A18F5
:1036000050720222F8784607F60F024200D01643A5
:103610000822024200D01643012202401201324326
:10362000D1E77F4EB24200D073E742460A2A00D06B
:103630006FE77A79160702D40F20104001305A182C
:1036400050727A79D006C00F960601D50226304313
:10365000560601D50826304352B2002A01DA10225C
:1036600010430122BE79324092010243B60701D5D0
:10367000802002435B18597A187ADA60FEF744FE1C
:1036800047E74246082A00D043E74646BA78164242
:1036900002D10F20104001305A185072F8784206BB
:1036A000D20F860601D502263243C60601D508266A
:1036B000324346B2002E01DA10263243060701D506
:1036C000402632434007D5D5D2E74246082A00D0EB
:1036D0001FE77A783E781202324352BA514E92B2C4
:1036E000B2427DD00136B24263DAFF2A76D06EDC78
:1036F000002A77D07F2A00D107205A1850727A7991
:103700009006C00F560601D502263043D606A3D533
:10371000A0E742460B2A00D0FBE6BE7804323240D6
:10372000013AD2B20B2A01D83F48805C5A18507235
:10373000F878C606F60F820601D502221643420625
:1037400001D50822164342B2002A01DA102216439C
:10375000012202409201324380078BD588E7334E25
:10376000B4466244052A00D9D3E64246062A00D070
:10377000CFE63A78160702D40F20104001305A18CD
:103780005072012278780240860702D50226324321
:10379000D2B2460701D508263243060701D51026C6
:1037A0003243C60601D540263243800600D461E785
:1037B0005EE71F48824217D01E4E0420B2429CD0C2
:1037C0001D488446624450424241500095E71B48E0
:1037D0008446624450424241D0B28EE706208CE7D4
:1037E00005208AE7082088E7032086E700235B6836
:1037F000FFDEC046C02902201521101081221010C2
:10380000FF2902207429022060208305014028043A
:103810001C187900D218790001E41F081722380714
:10382000DA0C4C05FF7F0000ECE31010E0FFA6E38C
:103830007FFF0000FFFF00000001FFFF0081FFFF8E
:103840007047C046F0B5DE4657464E464546040032
:10385000E0B50E0083B0042100F08EFA2207530F6A
:103860000920984602F082F804F094FD5D4904F0C6
:103870005AFD5D4904F043FD051C300004F08AFD4B
:10388000011C281C04F03BFDFA21890504F04BFDC6
:10389000564904F02EFD8321C90504F044FD04F0CF
:1038A000A1FD43469B0043449B0099460026FF220E
:1038B00001254F4B2C404B441E609E60DE601A6118
:1038C00058601D60012005F05BFE4A4B64001860E3
:1038D00001209B4605F054FE474F3860012005F05B
:1038E0004FFE464B424618609A465B4618321968AE
:1038F000D2030192424ACB021340C0020343414823
:10390000019A03400920134303439C46A0233E4AE7
:103910008901DB05CB181A6090463C4A4444934623
:10392000D9444A465A6004229A6062461A613B684A
:10393000374A9C46DB021340019A13430343A020FD
:103940006246C0058146920132484A4410603248BE
:1039500081464944516080219160136163462A0089
:103960009A402E4B0C201A602D4900F057FB012184
:103970000C2000F02DFB53461B682A4AD902114047
:10398000294A9B010A43A021C9058C462749634463
:1039900019605C600C00083C9D6020001A6189463B
:1039A00000F0CEFD802200214846120104F0AEFD59
:1039B0008020000120220021484404F0A7FD1C4B78
:1039C000A022E6501B4BD205E6523B689D40862361
:1039D000DB00D55003B0F0BCBB46B246A946A046BA
:1039E000F0BDC04600007A4400007F430AD7A33CE4
:1039F00000000540C8290220EC290220CC29022021
:103A0000FD871FFFFF7FE0FFD42902200C00054047
:103A1000FD7F00FF38EF01203C00005014240050CF
:103A200011DD0120FDFF1FFF11801F00D4DD0120EB
:103A3000280800002C080000802130B5124B134AE2
:103A400009019A5A8A421ED2114D5C5B621C92B2E5
:103A50008A4289411C190A4020725A531868EFF3B0
:103A6000108172B60268002AFCD0BFF35F8F07484E
:103A700059601A5A01321A521B68BFF35F8F002235
:103A80001A6081F3108830BDCCDD01202C080000C5
:103A900028080000F0B583B005000E00140000F007
:103AA000E7F9002801D003B0F0BD154F01223B001B
:103AB00001210097053001F065FD33002A000094D4
:103AC0000121104801F076FF21002800714303F026
:103AD000D3FD04000C4B002200930221042001F0CE
:103AE00051FD2300002201210094052001F04AFD30
:103AF0003B00022200210097062001F043FDD2E79F
:103B0000006CDC0200800240001BB700F0B54E469E
:103B1000DE4657464546E0B51600924A85B09346C4
:103B2000A022520091465A4603969B4606000192F7
:103B30000291019B8C4A93420DD901235B429C4622
:103B40008A4AE1449446019B634401934B460F2B00
:103B5000EFD100208EE01F00854B07249C46674470
:103B60002300634338001900984603F085FDA24600
:103B7000651E864250D06C433800210003F07CFD66
:103B8000864259D06B1E9846012D00D1D3E0534692
:103B9000E41A2100380003F06FFD864258D0AB1EB6
:103BA0009846022D00D1B9E05346E41A21003800AE
:103BB00003F062FD864264D0EB1E9846032D66D06A
:103BC0005346E41A2100380003F056FD864200D126
:103BD00072E02B1F9846042D00D174E05346E41A7E
:103BE0002100380003F048FD864200D17DE0052D1C
:103BF00000D17FE053463800E11A03F03DFD062472
:103C00008642ADD10029ABD1C8465B46D1460125DD
:103C10000298039E26E0A8464146380003F02CFD9A
:103C2000002900D197E0651EA2466C4338002100B0
:103C300003F022FD8642A5D12100380003F01CFDCF
:103C400000299FD1C8465B46D1460298039E09E0F1
:103C50000029A4D15246C2465B46C8465546914605
:103C60000298039E4246434951434A46016001205F
:103C700032601D6005B0F0BCBB46B246A946A04606
:103C8000F0BD0029E6D0EB1E9846032D98D10921FE
:103C900038000324092503F0EFFC8642BBD0032340
:103CA000062138009A460334073D03F0E5FC8642BE
:103CB000C2D0012398466AE70029CBD02B1F984633
:103CC000042D00D08AE704240C353B099E42A2D083
:103CD00004230C2138009A4608340D3D03F0CCFC37
:103CE0008642A9D00223984651E70029B2D0052D7B
:103CF00000D07FE719213800192503F0BDFC86426A
:103D000026D01421380003F0B7FC052314249A466A
:103D100086421BD0023B9846153D38E70423022417
:103D20009846BB089E4200D176E7A246013D7B083B
:103D30009E4200D180E7B74200D0FEE60122C8468D
:103D40005B46914601250298039E8BE7042573E7A5
:103D5000A846052460E7C8465B46A14625000298B0
:103D6000039E7FE750262F0050F80C0020D1FFFF64
:103D7000B0710B00001BB700094A10B594464024EF
:103D8000830063441A68C00062408034144080227B
:103D9000520113431C60034B9C466044416010BDBC
:103DA00004C0014000400140074BC0009C466044F5
:103DB000036809025940C0239B00194080235B011E
:103DC000034319607047C046044001400123D022DC
:103DD0008340120693629361094A4021944683000E
:103DE00063441A68C0004A40803111408022520169
:103DF00013431960034B9C4605236044436070479E
:103E000004C00140004001404021F0B5D6464F4675
:103E1000464688468031D0258C46C0B5BB398027C0
:103E2000002301248A46104A2D067F01044211D046
:103E3000210099404646A962A96111687140664611
:103E400031403E0016433160084ED900B146564617
:103E500049440E600133400804321E2BE6D1E0BC19
:103E6000BA46B146A846F0BD04C001400440014036
:103E7000024B18688007C00F7047C04600C006405C
:103E8000EFF3108072B6034A1368002BFCD0BFF327
:103E90005F8F70472C0100D0BFF35F8F0022024B71
:103EA0001A6080F3108870472C0100D070B5EFF3D2
:103EB000108C72B60D4D2B68002BFCD0BFF35F8FBA
:103EC0000724CB08C618C05C01230C40A3401C008B
:103ED0000440034207D118433070BFF35F8F2C605A
:103EE0008CF3108870BD100001F0C6FE2C0100D0CC
:103EF000F8B54746CE46884680B5EFF3108C72B6CB
:103F00001C4D2C68002CFCD0BFF35F8F9A4222D846
:103F100007210126894602E00132934218D34D461B
:103F200037001540AF40D4080119045D2742F3D192
:103F300010003C430C70BFF35F8F00220D4B1A60E2
:103F40008CF3108800280EDBC0BCB946B046F8BD23
:103F500001204042EFE7BFF35F8F00232B608CF31B
:103F60001088012040424346002BEDD0089801F014
:103F700083FEC0462C0100D00021044B044ABFF34D
:103F80005F8F02C39342FAD17047C046000100D050
:103F9000800100D0044A1078431CDBB2172B00D9F3
:103FA000102313707047C0463CEF012010B5064B3C
:103FB000064C82B00100009318221F232000FFF757
:103FC00097FF02B010BDC046F0DE10106C24022036
:103FD00001238340002904D0034A1360034A13607D
:103FE0007047034A1360FBE780E200E000E100E075
:103FF00080E100E001228240034B1B6813405A1EFF
:104000009341D8B27047C04600E100E0024B103047
:104010009B688000C058704700ED00E070B50D004F
:10402000EFF3108672B60F4A1368002BFCD0BFF373
:104030005F8F0D4B10309B6884001B590B4A9342D5
:1040400003D09D4201D001F02FFE074B9B681D510C
:10405000BFF35F8FBFF35F8F0022024B1A6086F3BE
:10406000108870BD240100D000ED00E0CD011010DB
:10407000F0B557464E46DE464546E0B585B00600EB
:1040800000911700EFF3108B72B66A4A1368002B89
:10409000FCD0BFF35F8F0025674B5D579A46002D1C
:1040A00000DAA9E06B00654C01935B199B00984610
:1040B000A146C1444B4652469B7910361370604B63
:1040C000B6009B6899590B1B2F2B33D95D4B994236
:1040D00000D0ACE0019B42469C465B4B6544AD0082
:1040E00063535A4B0232A218043B9B1A1B05584AD1
:1040F0005B0D651913436B80564B0121AB80FF2389
:10410000AB71009BEF71AB604B460B4319004C4BFE
:104110009B689951BFF35F8FBFF35F8F0022454BC0
:104120001A608BF3108805B0F0BCBB46B246A946B6
:10413000A046F0BD01200A008243D3798C46BB42E1
:1041400031D84546130044491B1B5B415943090DB7
:104150003D4B63533D4B02356519043B5B1B1B050F
:104160003B4D5B0D2B43AA464D466B800425AC4668
:104170005546E044131F44441B1B1B055B0D1D43A8
:104180004B46997100999D8099604946DF71334B88
:1041900001431360BBE75800C01880002018C179A4
:1041A000B9422FD902000623D356002BF3DA02932B
:1041B0002B4B61460393131D9A4604235B429C4696
:1041C000E14450464B461B1A1B055B0D9C46204B99
:1041D000957198466346404603439380019B5A1964
:1041E0009200039BA418A380029B1C4AA371009B0E
:1041F0002260E771A3608AE701F056FD002553466F
:104200005D574FE7908802934005131D9A460315AA
:1042100061469C464046D444634604302018181A30
:10422000E0230005400D1B0218430390C5E701F091
:104230003BFD4FE7240100D0002A022040EF01207F
:1042400000ED00E0CD01101000A1FFFF70EF012094
:1042500000E0FFFF01BDFFFFAAAA00000148804760
:1042600001BD0000F8B5DE4657464E4645460C00F7
:10427000E0B5EFF3108872B65B4A1368002BFCD0F0
:10428000BFF35F8F594B5A499A68030010339F0060
:10429000D5599C468D4238D0A54248D0554EAA1BD0
:1042A0002F2A32D8012213008340994652480068D1
:1042B00003409A464B4651480360BFF35F8FEFF3CC
:1042C00005839B46002B34D09C4501D001F0ECFCCB
:1042D00001232A009A439068844208D172E04B007F
:1042E0005B189B00F3189868A04232D01A00062190
:1042F00051560029F3DA844250D05346002B24D083
:104300004A463F4B1A603C4B1A60384B9B68DD5164
:10431000BFF35F8FBFF35F8F0022334B1A6088F3C8
:104320001088F0BCBB46B246A946A046F8BD0D00B9
:10433000EBE72B00934398681A008442D7D10620FC
:104340001856002809DA0D0030E04A462B4B1A6057
:10435000DBE706201856002821DB420011188900EF
:1043600074188B46A1689960E179D971062161566C
:104370009971002924DBA488F11A640524155C4492
:10438000091909051F4C490D2143998013181E4A2C
:104390009B001178F31899711070AEE7130059461D
:1043A000002914D1FF3191711849918016490A787A
:1043B0009A71174A9B1B5B415A43120D0A709CE786
:1043C0001249E2E70620105613000028C5DA114A08
:1043D0001149D21A083A5002400D014399800F4901
:1043E00052080A43DA8088E7240100D000ED00E09B
:1043F000CD01101040EF012000E100E080E100E07D
:1044000080E200E000E0FFFF002A022001BDFFFF84
:10441000AAAA00007AEF012000F0FFFF00F8FFFFDA
:1044200070B5EFF3058101240443EFF3108C72B6ED
:10443000214A1368002BFCD0BFF35F8F1F4B050090
:104440001F4AED1A6D416A43120D1E4D8900AE6878
:1044500052B27658A6421CD00621595691421CD021
:1044600012215956914222D01E215956914220D0F4
:104470002A2159560324914210D0134B19781A70EF
:104480008171BFF35F8F00220B4B1A608CF3108891
:1044900070BDAB680D4C5C50EFE70024610009195A
:1044A00089005B18FF21997109499980E5E701248A
:1044B000F4E70224F2E7C046240100D040EF0120D7
:1044C000AAAA000000ED00E0002A0220CD01101091
:1044D00001BDFFFF054B064A1360064A1360536097
:1044E0009360D360136153619361704780808080D3
:1044F00000E400E004E400E0024B9C4661448900D3
:10450000016070474000003410B50400FFF742FD21
:1045100001002000FFF7F0FFFF232371BFF35F8F3F
:1045200010BDC04610B50400FFF734FD01002000A7
:10453000FFF7E2FFFF23A380BFF35F8F10BDC046EC
:1045400010B504000120FFF731FD034BC3189B0099
:104550002360BFF35F8F10BD4000003483680B48B9
:1045600010B58446614462441201090159189B1830
:104570005C684A680120944201D802D00020C0B291
:1045800010BD1A680B689A42F9D8F7E7FFFFFF0FD2
:104590000A4B1968EFF3108072B60A68002AFCD043
:1045A000BFF35F8F1B68BFF35F8F00221A6080F339
:1045B000108840BF002000217047C046D829022043
:1045C000F8B557464E464546DE46E0B598460CAB34
:1045D0001C780DAB1B78070091469A460668002CA4
:1045E00057D1B47B002C3AD0650031682D19033DBA
:1045F00049194B78B373002B00D1F37300238B70F0
:104600004B700B702D4BE218BB6812019B184A4689
:104610001A6042465A600A9A9A600B9ADA6000233E
:104620008B704B700B70737B9B46002B24D0220049
:1046300073685946B06898475B465B0032685B44D4
:10464000033B5519D21800280FD05B46AB70137886
:10465000002B24D15B46147073735C450DD0F0BC05
:10466000BB46B246A946A046F8BD94702B78002BF5
:1046700000D053705B462B7074734A464346387DB6
:1046800000F034FC051E11D10E9B002BE7D01D70ED
:10469000E5E7650031682D19033D4919B2E76B70F4
:1046A0005B46147073735C45D9D1E6E75346002B23
:1046B000EAD12100386800F04FFEE5E7FFFFFF0F69
:1046C000664B8200F0B5D4580023DE4657464E466E
:1046D00045469B46E0B58DB0099000F073FB6268DB
:1046E00006000F00EFF3108872B61368002BFCD0A1
:1046F000BFF35F8F23689C465B7B9946002B0DD1EF
:104700006368BFF35F8F4A461A6088F310880DB064
:10471000F0BCBB46B246A946A046F0BD504BA568CA
:104720004B441B01ED182868696802000B00921BBE
:10473000BB41002B0EDD02000B00099800F0D6FBF8
:104740006368BFF35F8F5A461A6088F310880028A9
:10475000C3D1DCE7002B01D1002AECD10021604657
:1047600000F066FDAB680200286869689A46EB684D
:104770000A900B9108934B465D1EE368585D636891
:10478000000202432261BFF35F8F5A461A6088F32A
:1047900010885346002BBAD04B4608991843D0478F
:1047A000626806900791EFF3108872B61368002BC9
:1047B000FCD0BFF35F8F079B002B27DB069A079B7C
:1047C0001100194302D02369002B3BD12368D97B08
:1047D000002906D01A684800411852184946033A81
:1047E00051709A7B002A01D14A469A734A46DA737D
:1047F000E268535D013353555B4623616368BFF341
:104800005F8F5A461A6088F3108866E72369002B89
:10481000DCD00A9A0B9B06980799121A8B41002B41
:1048200002DA01220F4B524200210491013103911F
:104830004946029108992000019151460091FFF7E5
:10484000BFFED9E700F0BEFA069A079B12184B414B
:10485000002BE9DA0122034B5242E5E7B02902209E
:10486000FFFFFF0FFFFFFF7F10B5144C6368002BA5
:1048700004D00A211248FFF73FFE10BD2300114A61
:104880001021206800F0E0FB032000F08FFA0320E5
:1048900000F094FB03200C4900F0E2FAFFF77AFBEA
:1048A0000A4B9C4603232375D0231B061B686044D8
:1048B0006375074B80006060DC60DAE788EF0120F9
:1048C000D82902205D451010C14610104000003468
:1048D000B0290220F0B54E465746DE464546E0B5C3
:1048E00087B0019312AB1B780600059300239A460C
:1048F000994600927268EFF3108B72B61368002B22
:10490000FCD0BFF35F8F3568AC7B002C00D170E02A
:1049100067002B683F19033FDB195A78AA73002AF6
:1049200000D1EA73464AA118B268090152180098EA
:10493000019910605160109991601199D1604A46B7
:104940009A705A701A706B7B9846002B61D02200C7
:104950006B684146A868984743465B002A68434411
:10496000033BD719D21800284CD04346BB701378AC
:10497000002B00D07B70434614706B73444549D0C4
:10498000F3681B19013B18787368BFF35F8F4A46C1
:104990001A608BF310885346002B08D10002204385
:1049A00007B0F0BCBB46B246A946A046F0BD059B89
:1049B000002B43D0109B00201199984703000B4314
:1049C0003CD002900391002931DA009B019C0299AE
:1049D000039A5B1A94418022009301941206944238
:1049E00004D30123174C5B4200930194059B9A4624
:1049F00080E77368BFF35F8F1C608BF31088012022
:104A00004042CDE794703B78002B00D05370434672
:104A10003B706C73307D009A019B00F067FA824610
:104A20000028ADD02100306800F096FCA8E700F027
:104A3000C9F9029B039C1B184C41CCE70020AFE74F
:104A4000FFFFFF0FFFFFFF7FF0B5C64600B584B044
:104A500004000D0000F0B6F924184D41002D02DAD3
:104A600001242B4D644206267642F71736196F4112
:104A7000AF4214D811D000F0A5F932003B00121A51
:104A80008B41002B15DC002B3ED02000290000F0CC
:104A9000D7F904B080BCB846F0BDA642EBD90026D9
:104AA000002700F08FF932003B00121A8B41002BD7
:104AB000E9DD002302930193164B32000093164860
:104AC0003B00FFF707FF0130DFD000233900984695
:104AD000124A1348536A994204D8976ABE42D4D9FD
:104AE0009942D2D10768EFF3108C72B63B68002B65
:104AF000FCD0BFF35F8F0368BFF35F8F47461F6033
:104B00008CF3108820BFE5E7002ABED0D1E7C0466D
:104B1000FFFFFF7F9145101088EF01200040054006
:104B2000D8290220F0B5C64600B584B0040000F0D4
:104B300049F9FA2206000F0020000023002192000C
:104B400003F0BAFB8019794104000D1E02DA01243A
:104B50002A4D644206267642F71736196F41AF4256
:104B600014D811D000F02EF932003B00121A8B41FC
:104B7000002B15DC002B3ED02000290000F060F94E
:104B800004B080BCB846F0BDA642EBD90026002791
:104B900000F018F932003B00121A8B41002BE9DDBE
:104BA000002302930193164B3200009315483B00FB
:104BB000FFF790FE0130DFD0002339009846124AFB
:104BC0001248536A994204D8976ABE42D4D999428E
:104BD000D2D10768EFF3108C72B63B68002BFCD083
:104BE000BFF35F8F0368BFF35F8F47461F608CF38F
:104BF000108820BFE5E7002ABED0D1E7FFFFFF7F86
:104C00009145101088EF012000400540D82902206E
:104C1000F0B5EFF30583C64600B505000C0084B07F
:104C2000002B0FD02F4A0020536AA34206D3926A6A
:104C30001B1B591E8B41AA424041184304B080BC43
:104C4000B846F0BD284E02930193284B0200009312
:104C500030000B00FFF73EFE00280CDC214A00204C
:104C6000536AA342EAD3926A1B1BAA4240415A1ECE
:104C700093411843E2E720BF7268EFF3108772B6E2
:104C80001368002BFCD0BFF35F8FC3B29846FF229E
:104C9000336802409C465B7B43450DD06346510020
:104CA0001B6889185B18033B9B78002B04D1326981
:104CB000904209D1336107E0F168030A8A18013A8A
:104CC0001278DBB29A4207D07368BFF35F8F00227D
:104CD0001A6087F31088A5E74146604600F03CFB68
:104CE000F2E7C0460040054088EF012091451010D2
:104CF000F0B5EFF30582D6464F4646461000C0B5E4
:104D00001038EFF3108872B6214C2368002BFCD0CA
:104D1000BFF35F8F0123190081401E4D1F0069639F
:104D2000AA461D4D29601D4D2E78AC463500C54064
:104D30002F402B4215D053465F6A194B8500EB5824
:104D40009F4218D36246174B8E43EB581670BFF341
:104D50005F8F0022226088F31088002B06D09847CE
:104D600004E0BFF35F8F276088F31088E0BCBA4689
:104D7000B146A846F0BD0C4B92009C4662441368B5
:104D80001360BFF35F8F0023236088F31088EDE783
:104D9000280100D0004005403C700540032A022055
:104DA000DC29022054240220D03F054010B5034BDB
:104DB00001001800024AFFF779F810BDFC29022013
:104DC0000CDF1010034B596A0A00986A596A8A422C
:104DD000FAD170470040054070B504000D00174A35
:104DE000536A1900966A536A8B42FAD1300019004F
:104DF00024184D41AB4216D813D0104B2A005B6AE1
:104E00009D4203D90D494B6A9342FCD3934207D18B
:104E10000A4A02E0516A994202D1916AA142F9D349
:104E200070BDA642E9D9054B5B6A1C005A1CEFD045
:104E3000012201246442E5175242E3E700400540A5
:104E4000064A536A9942FCD807D1044B02E05A6AD9
:104E5000914202D19A6A8242F9D3704700400540DC
:104E600070B504000D00EFF3108672B61A4A13688D
:104E7000002BFCD0BFF35F8F002D1BD02000FFF76D
:104E8000C5F8164981420AD02000FFF7C7F8012172
:104E90002000FFF79DF80123A340114A1360114B36
:104EA000A400E550BFF35F8F00220B4B1A6086F31E
:104EB000108870BD0121A1400A4BA200D5500A4BB9
:104EC00020001A788A4305491A70FFF7CBF90021B0
:104ED0002000FFF77DF8E5E7280100D0F14C101025
:104EE0003860054054240220032A0220F0B54F46C2
:104EF000D6464646C0B507002B4C616A0D00A66A2F
:104F0000616AA942FAD18B4208D805D00120E0BCE1
:104F1000BA46B146A846F0BDB242F7D9EFF3108ABF
:104F200072B6224801680029FCD0BFF35F8F0125CB
:104F3000BD401F491C4C8846097889462943C9B29F
:104F40008C46414660460870391D890065630A51E8
:104F50001849B8004350216A0020294219D0616ADB
:104F60000800A66A616A8142FAD18B4219D801D140
:104F7000B24216D8CC450BD00B4B1F221D625D638D
:104F800001233A4093400C4A136043464A461A7044
:104F90000120BFF35F8F0022044B1A608AF3108850
:104FA000B5E70020F5E7C04600400540280100D0E5
:104FB000032A0220DC29022080E200E0EFF3108CBB
:104FC00072B60A490B68002BFCD0BFF35F8F012338
:104FD0008340074A0748136202789A430270BFF37E
:104FE0005F8F00230B608CF310887047280100D07E
:104FF00000400540032A022070B506000D00140091
:1050000000291CD0002A12D073688068984763007A
:105010006A0031681B195219033B033ACB188918EF
:10502000002806D09D700A78002A0AD10C7028004A
:1050300070BD8C701A78002A00D04A701D70200054
:10504000F6E75A700C70F2E710B583600023CCB21B
:1050500043730133426004738373C4730068421C5A
:10506000012C05D90133DBB2137003329C42F9D114
:10507000FF230B405A00D318C01800230338437095
:1050800010BDC046F8B5CE46474605000C0080B5B9
:10509000002907D04E0003687618033E9A19577806
:1050A000002F04D12000C0BCB946B046F8BD79003D
:1050B000C9190339884643445978894600215970F3
:1050C00051706B683A0021008068984743462A680F
:1050D000D3189219002811D09C701178002900D0A3
:1050E00059701770270049462800FFF7CBFF390099
:1050F00002002800FFF780FF0400D3E797701978BB
:10510000002900D051701C70EDE7C046F8B5574635
:105110004E464546DE464C00E0B56418170002686E
:10512000033C0500105D13190E009C46002854D066
:10513000430098461B18033BD31859788A46002928
:1051400020D1002F13D0EC7B002C51D063001B1911
:10515000D318033B5E70AB7B002B3CD0EE73002872
:1051600007D04300984643461918033953180022C4
:105170009A70002362465370F0BCBB46B246A94603
:10518000A046F8BD49005144033952185178884669
:105190000021517089465970524601002800FFF7DE
:1051A0002BFF43468246002B07D05B00296843440F
:1051B000033BCB185A78002A1FD14246514628009B
:1051C000FFF71AFFA4462A689444002FC7D0EC7B4F
:1051D000002CC0D0BAE7AE73C0E7002FC9D0EC7B7B
:1051E000002CB3D1AB7B002B20D1A973E973C0E7AE
:1051F000AB7B002BEFD0EE73B5E75000801803387F
:105200000918487883464846487058704146280037
:10521000FFF7F2FE594680462800FFF733FF41466C
:1052200002002800FFF7E8FE8046C6E7E973A0E722
:10523000F8B557464E464546DE46E0B5467B026821
:105240007500AD19033D0F00515D531904009C46D4
:10525000002956D04B0098465B18033BD31858786A
:105260008246002822D1002F13D0E57B002D53D099
:105270006B005B19D318033B5E70A37B002B3ED001
:10528000E673002907D04B00984643465818033868
:10529000131800229A700023624630005370617325
:1052A000F0BCBB46B246A946A046F8BD40005044FB
:1052B000033812185078804600205070814658708C
:1052C00052462000FFF798FE43468246002B07D047
:1052D0005B0021684344033BCB185A78002A20D155
:1052E000424651462000FFF787FEAC462268010087
:1052F0009444002FC5D0E57B002DBED0B8E7A6733F
:10530000BEE7002FC7D0C57B002DB1D1837B002B1A
:1053100020D18673C673BEE7A37B002BEFD0E67364
:10532000B3E7500080180338091848788346484688
:105330004870587041462000FFF75EFE594680468F
:105340002000FFF79FFE414602002000FFF754FEB9
:105350008046C5E7C6739EE770B5040000292CD0CF
:10536000437B8B422ED0056848004018033828182C
:105370008278002A21D053009B18033BEA5CEE1888
:105380008A4202D11BE0002A08D053009B18033B3D
:10539000EB185A788A42F6D142785A7000230122DB
:1053A000837043702000FFF7B1FE617B0200200094
:1053B000FFF722FE6073012000E0002070BD4378FB
:1053C0003370EBE701221900FFF7A0FEF2E7C046B9
:1053D00070B516000D0019000400FFF78DF82900C4
:1053E000701C03F06BF80023E681A5816060A36068
:1053F00070BDC046F8B5CE464746040080B50620CD
:105400000E0000F0ADFA051E75D0534B80229C4271
:1054100000D192E0514BD2031A60514B51491A60AE
:1054200010008B689843FBD14F4B504AE318594208
:105430004B4180215B0049000620995200F090FA10
:105440003100C00002F018F9C30926D0484A93423F
:1054500000D876E000234749474A6162A362256B82
:105460009046EB0721D52200C02330329B01134325
:10547000424A06201A60666AA36AB601F61800F06E
:105480006FFA3F4902F0F8F8B6020100300002F06E
:10549000F3F80021FFF7A0FC07E04022012190462D
:1054A0006162A362256BEB07DDD427008026E36AE7
:1054B00000232C3776013E4333600620256300F03D
:1054C0004FFA4146800002F0D7F8236B050098465A
:1054D000DB0715D46023E26A5A400E331340336071
:1054E00043462363802310229B013B431A60234BD6
:1054F00023630323A3642800C0BCB946B046F8BDAB
:105500002200C02330329B0113431C4A06201A603C
:10551000636AA26A9B019946914400F021FA4B46C6
:1055200017499B02994602F0A7F80100484602F08D
:10553000A3F80021FFF750FCCCE7084B12041A60D7
:105540006BE77F2299018846024001325208190018
:1055500090441300A4E7C0460080034000E00040F0
:1055600000F0004000C000400080FCBFF029022095
:10557000FEFF0000FFFF0000C0FF3F00010300002E
:105580004E0E0000F0B545464E46DE465746E0B5A5
:1055900083B016000C9A050088469A4200D975E03F
:1055A0001A0E93461B0218000193594600230C9AC9
:1055B00002F0A0F8364B6C009C466419A4006444C9
:1055C00063680700834200D260602B1FDBB29946FC
:1055D000012B36D9C02380229B01234312011A607C
:1055E0002C4BAD0059599A46002907D0586902F052
:1055F00043F8013043001B18033BFDD222687301BE
:105600005340E0221A4080235B0123431A604A463C
:10561000012A2ED9802380229B01234312011A6084
:10562000594600233A000198676002F063F8534638
:105630005851012003B0F0BCBB46B246A946A04673
:10564000F0BD4346012BC5D1C02303229B01234358
:105650001A60023AA3681A42FCD0226873015340D0
:10566000E0221A4080235B0123431A60094AAD00FF
:10567000924642462168514003220A401A600122A4
:1056800043469A40A3681A42FCD0C3E70020D1E702
:1056900000800040D0F7012010B50C2082B000F04F
:1056A000E9F9FEF7E5FB002810D08B4B8B488B49BE
:1056B0008B4A186059609860D96018615961986187
:1056C000D961186259625A6202B010BD854CA06758
:1056D00000F026FA0122844B1A60636C012BFCD186
:1056E0000322824B1A607F4A936B012BFCD101335A
:1056F00001217F4A7F480093043300F05BF90523C2
:105700007D4A009301217D4800F054F97C4B5A6892
:10571000FF2A02D8802252005A608022734B6E4CBE
:1057200012011A602169002907D0606901F0A4FF05
:10573000013043001B18033BFDD2E023704A71483F
:1057400011680B40036002231168594001330B407C
:105750000421036093681942FCD080216A4B09013F
:1057600019608021694B490051602361684B5A6878
:10577000FF2A00D85960032201215B4B1A60644A5A
:1057800093681942FCD0E02310680340614803602D
:10579000126803234A40022113405D4A0360936864
:1057A0001942FCD080215C4B0901196080215B4BC0
:1057B0004900516063615A4B5A68FF2A00D859600A
:1057C0008022584B12011A60E169002907D06069F4
:1057D00001F052FF013043001B18033BFDD2E023D0
:1057E0004F4A11680B4050490B6080214F4B090113
:1057F00019608021394B49005160E3614C4B5A6874
:10580000FF2A00D8596080224A4B12011A60216A8F
:10581000002907D0606901F02FFF013043001B18F9
:10582000033BFDD2E023424A11680B4042490B6022
:105830008021424B0901196080235B005360802264
:10584000264BD20223623E4B5968914200D25A60E5
:1058500080223C4B12011A60616A002907D06069FE
:1058600001F00AFF013043001B18033BFDD2E02387
:10587000334A11680B4034490B608021334B0901D6
:1058800019608023DB025360154B6362304B5A680A
:10589000FF2A02D8802252005A6080222D4B12012A
:1058A0001A60A169002907D0606901F0E5FE0130A6
:1058B00043001B18033BFDD2E023254A11680B402F
:1058C00025490B608021254B0901196080235B006D
:1058D0005360124BA361F7E6D0F70120006CDC02A5
:1058E0001BB70000008000403CB0004030B00040DA
:1058F000002F685900800240008C864700C002409B
:10590000308000403090004030A00040001BB700C5
:105910003C8000403C9000403CA000404059730750
:105920005480004054B000405490004054A00040C7
:105930006080004060B000406090004060A0004087
:105940006C8000406CB000406C9000406CA0004047
:105950004880004048B000404890004048A00040C7
:10596000014B8000C0587047D0F70120802270B5ED
:1059700006000E4C5200A3691D0015401342FAD1D7
:10598000FA210B4B8900186901F076FE0A231021D9
:105990002060064A23610B3B6560A36066619369E2
:1059A0001942FCD0D069400970BDC04680800040DB
:1059B000D0F70120F8B5040022481E0017000D00A2
:1059C00001F05AFE0100380001F056FE069B360435
:1059D0001B031E432368002B22DB1B4B1B49E318D0
:1059E0005A1E93418022920194465B421B0B184A37
:1059F0001B0363441360174A13601F008A689743B0
:105A0000FBD1C022231D92011A4321232560A060EF
:105A100013602368002BFCDA0823E6601360F8BDEE
:105A20003F2322681340AB42D7D1A3681B051B0D4F
:105A30008342D2D1EE22E368D2021340B342CCD1EA
:105A4000EDE7C046001BB7000040FDBF00C00040AE
:105A500000E0004000F00040044B00011B68044AD5
:105A60005840F023034013607047C0460040064092
:105A7000005006408023024A9B000343D3627047D4
:105A80000080054010B580241C4BE4051C600028F4
:105A90001AD001231A4C18431A4BDC611A4C4440AB
:105AA0001C62596298628021144BC905196017481D
:105AB00017490860E021C9041960002A07D1802233
:105AC000144B12061A6010BD0E4BD861EBE7530160
:105AD0009B1A9B009A18802312015B049A4209D2F8
