:020000041008E2
:1080000000B50C4B00219960082159610A4919609B
:108010000A490B480160002159600121996001BCA7
:10802000002800D0004707480749086003C880F3CC
:10803000088808470000001800031F00180200030A
:10804000F40000180001001008ED00E0000000003E
:108050000000000000000000000000000000000020
:108060000000000000000000000000000000000010
:108070000000000000000000000000000000000000
:1080800000000000000000000000000000000000F0
:1080900000000000000000000000000000000000E0
:1080A00000000000000000000000000000000000D0
:1080B00000000000000000000000000000000000C0
:1080C00000000000000000000000000000000000B0
:1080D00000000000000000000000000000000000A0
:1080E0000000000000000000000000000000000090
:1080F000000000000000000000000000A071FAADC8
:1081000000200420F7810810C3810810C5810810E1
:10811000C1810810C1810810C1810810C1810810F7
:10812000C1810810C1810810C1810810C7810810E1
:10813000C1810810C1810810C9810810CB810810C5
:10814000CD810810CD810810CD810810CD81081097
:10815000CD810810CD810810CD810810CD81081087
:10816000CD810810CD810810CD810810CD81081077
:10817000CD810810CD810810CD810810CD81081067
:10818000CD810810CD810810CD810810CD81081057
:10819000CD810810CD810810CD810810CD81081047
:1081A000CD810810CD810810CD810810CD81081037
:1081B000CD810810CD810810CD810810CD81081027
:1081C00000BE00BE00BE00BE00BE00BEEFF30580D4
:1081D000103800BEF2EB8871FCC2091020C30910F0
:1081E0003482081090A31AE700201F49086006C8CF
:1081F00081F3088810471D48006800282FD10DA47E
:108200000ECC002902D000F012F8F9E71849194AFB
:10821000002000E001C19142FCD11749884717496D
:1082200088471749884700BEFDE701C901C29A4245
:10823000FBD3704720C30910C0000020B0BA022051
:10824000107D0C10000004204C0604205C830C10F0
:108250000010042028130420000000007047094883
:1082600007F0B2FB0047000008ED00E0000000D07E
:10827000B0BA02201C4303204DDF081081B3081060
:1082800075E008105756000006005250ABB360531B
:1082900008B4091006005250861C030220B40910CD
:1082A000060052505422A29D24B4091005005250D9
:1082B000DE65F46884860C10F8B5C0460448054BAA
:1082C00010B5834203D0044B002B00D0984710BD5B
:1082D000B0BA0220B0BA02200000000006480749E8
:1082E000091A8B10C90FC91810B5491003D0044BD7
:1082F000002B00D0984710BDB0BA0220B0BA0220BF
:108300000000000010B5074C2378002B09D1FFF7BF
:10831000D5FF054B002B02D0044800E000BF01232D
:10832000237010BD70C202200000000008B10910C7
:10833000054B10B5002B03D00449054800E000BFF1
:10834000FFF7CCFF10BDC0460000000074C2022041
:1083500008B10910574B70B5C3181A69002A01DD1E
:10836000013A1A61002A09D1534A81180A78D24386
:108370000A705A88002A00D18CE01A615A69002AD2
:1083800001DD013A5A61002A09D14C4A81180A7864
:10839000D2430A709A88002A00D178E05A619A691B
:1083A000002A01DD013A9A61002A08D1444A811865
:1083B0000A78D2430A70DA88002A65D09A61DA69AD
:1083C000002A01DD013ADA61002A22D101243D4A66
:1083D00081180A7862400A701989002A0FD0DA8C55
:1083E000550814404E0700D56A4080269203F601D6
:1083F00032402A43DA846242334C04192270032249
:108400000A40022A4CD0032A4DD0012A45D010221E
:10841000DA61802109018C469A6AD96A62449A62BB
:108420008A4230DB521A9A62234A8218117800225B
:10843000002902D0254A997A525C204941180978CE
:10844000002903D02149DC7A095D52181C494118E2
:108450000978002903D01D491C7B095D52181A496F
:1084600041180978002903D018495B7BCB5CD218EE
:10847000BE235B00C358002B05D0C021803A4900C1
:108480004158D0B2984770BD8022D20096E7802232
:10849000D20083E78022D2006FE72022DA61B8E7BA
:1084A0004022DA61B5E7DA88002AB1D18022D20011
:1084B000DA61AEE7148A0000348A0000358A0000D1
:1084C000368A0000388A0000378A000030B8091068
:1084D000F0B54E46DE4657464546E0B5B14CB24B88
:1084E000A544C4588146FF2C22D8B04BC55CB04B84
:1084F000C35CAB4225D8A02218AB00211800920023
:10850000039308F0D5F9AB4AA30094461B199B01CD
:1085100063444B4418000F24039A137851781B01CD
:1085200021400B4303700232B8AB01309A42F4D1C0
:10853000B9239B009D44F0BCBB46B246A946A04669
:10854000F0BD9D4BC35C002BD5D19C4BC35C059308
:10855000002BD0D09A4BC15C8B0737D41026994B97
:108560000E40C35C002B01D000F04AFC4A46734227
:108570005E41954BA700D35C3F199B468D4BBF01D5
:108580009C4667443B005A46B5004B440435019372
:10859000072A00D840E3A0225B1B9A468B4B52006F
:1085A0009C46002700269046059CE144330076193E
:1085B000464500DD69E353462A00494698190137CC
:1085C00008F07CF9BC42F1DC34005FE3A02218AB78
:1085D000002118009200039308F06AF94A467A4B8A
:1085E0000A21D05C400807F049FA4A46CBB20C9306
:1085F000774BD35A1A0002930023002D1DD0F82583
:10860000059E7F20911B89B201224F460139ED0161
:1086100002E00132292A0ED08B189B059B0D2B43BB
:10862000FB188533FF331B7803400D2B01D100F07D
:1086300096FC9642EDDCB94600230C9A9446510014
:1086400012916344013113911193022A00D98AE1F6
:10865000002398460E930F9310931693159360334F
:108660009C469F339B465B4B0725149343460993D7
:108670004B4600260022039917940893F820029B8A
:10868000C0019B189B059B0D0343089867468046D5
:108690007F2043448533FF331B7818408146604672
:1086A0001F40184246D14B461F2B3BD814989B00C5
:1086B000C3589F460023CA463700099333025846E1
:1086C0003840184300233E00002498460F704F7036
:1086D0008F70CF7088808F71CF7108818F720193F6
:1086E0003300CF72002C00D02B005F461C02019893
:1086F0003B4023438B813300002800D02B008B7339
:108700004346002B00D13500059B0132CD739342C7
:1087100000DC24E11031282A00D120E15546ADE7E4
:108720000023109337000F9B002B00D0F3E0AA46E4
:108730003B02C4E7099800284ED0202018424BD0B5
:10874000159BAA469846370016935C463B023C4070
:108750001C434E46099401244846344002260640F4
:108760004046002800D12FE30C98022800D0ABE04F
:10877000002C01D000F07AFC002080460190069089
:1087800004900790002E00D1F3E2099B3E000B807D
:108790008B804B460E9301238F70CF708F7109939E
:1087A0007BE0C0461CFDFFFFFC810000F081000063
:1087B000E2810000B09A0000F3810000DD8100003A
:1087C000028A000001820000F181000002820000A4
:1087D000F681000008B109104C46109B203C002B8C
:1087E00000D1A0E01198A30080461B19BF489B0050
:1087F00043448046089843445B001B5A8020C000D5
:1088000018400D9080208000184082468020400053
:1088100018400A90802018400B9040201840814654
:10882000202018400790102018400490082018407D
:1088300001270690022004241F401840B8461C401F
:108840002F0001901B0501D400F02DFC58463B027F
:1088500007400D981F432B00002801D100F026FC93
:108860008B7053460F80AA46002B00D163E32F0084
:108870000A983300CF70002800D02B0058461F0202
:1088800003400B983B438B80330000283CD18B7115
:108890004B46002B00D15EE22F00CF71079F3300C3
:1088A000002F00D02B0058461F02034004983B4382
:1088B0000B813300002800D02B008B72069B002B0D
:1088C00000D135E32F000BE7002C00D19FE3002EF1
:1088D00000D1EEE35846099B28400B802B02184339
:1088E0004B460E9300230793023301933E33994680
:1088F0003F3B984609930733069300233E00042428
:108900008F70CD70888004932B008B714B46002BA9
:10891000C2D120E23700099BAA46002B18D10133AF
:108920000F933B02CBE6A0000019704C129BA046AF
:10893000139F8000C3184344B8466C4F4044B84668
:10894000089C40445B0040001B5B005B034355E711
:10895000169B98460E9B994601230F93F5E6089BBC
:10896000179C9946CFE50023984609930B931093E3
:10897000069316931593FF339B465D4B072614937E
:108980004B4600254246039817940793F821029B13
:10899000C9019B189B059B0D0B43079960248C46CE
:1089A00063448533FF3319787F230B409946602356
:1089B0000B400C425CD149461F2951D8149C8900B8
:1089C00061588F46002306934B4604932B002D02DB
:1089D000594619402943818000211D0088468C4654
:1089E000002700248A46037043708370C37083712C
:1089F0000191C3712B00002C00D0330059461C029A
:108A00000B40234303812B00002F00D0330001993A
:108A100083722B00002900D033006146C3722B0003
:108A2000002900D033005C46190223400B43414625
:108A300083812B00002900D0330083735346002B21
:108A400000D12E00059B0132C673934200DCDFE0AB
:108A50001030282A00D1DBE0049E97E70023109312
:108A60002B000B99002900D0ADE004961D02AFE762
:108A7000069B002B3ED089063CD5159B04969C4650
:108A800016932B0059461D021940294306910C9953
:108A9000062900D872E1494610244F460C40402177
:108AA00039404F06FF0F08976746002F00D012E1AC
:108AB000002C00D157E2002900D043E200218A4671
:108AC00088468C46002700240191FF213502314061
:108AD0000D43058085801D004B4609930123867058
:108AE0000693C6703300867183E7C046D845000000
:108AF00088B109104C46109B203C002B6BD011997B
:108B0000A3008C461B19D1499B0063448C460799EE
:108B100063445B005B5A8021C90019400D9180219C
:108B2000890019400E91802149001940049180214B
:108B300019400A91402119400891082119400191DA
:108B4000042119408C460221194088460121202425
:108B5000102719408A46B1461C401F401B0500D40F
:108B600061E24B4619020F915B46494619400B00E2
:108B70000F99194301800D993300002900D1B2E209
:108B800083700E9B002B00D1E7E133000499C37082
:108B90002B00002900D033001902894659460B40AA
:108BA00049460B4383800A9B0496002B08D0330070
:108BB000089983712B00002900D11AE7330018E7C8
:108BC0002B00F5E72B0006990496002919D1012105
:108BD0001D020B91FCE6A10009199C4C129BA446B6
:108BE000139F8900CB186344BC46984F6144BC4630
:108BF000079C61445B0049001B5B095B0B438AE7F0
:108C00002B0016998C460999894601210B9139E769
:108C1000079B179C994676E4A0235B008C4F9846EF
:108C20008C4B00269A463B0000242F004D46994667
:108C300027E05346EA5A921993049B0CD20409D5B3
:108C40004946854AAA5C9206920F5200525A9A1AD5
:108C5000824B1340019ADB00D01B5A4613431BB2D0
:108C6000EB188533FF3319787D4BC9009C4661446E
:108C70003A000019691807F021FE059B01369E4253
:108C800004DA2300E4194445D3DD1C00A02252007D
:108C9000944200D14CE4019B0021121B181907F0EB
:108CA00007FE45E44B46103BDBB204930B9B002BC5
:108CB000A6D101212B0006912D0289E64B46103BDF
:108CC000DBB29A460F9B3700002B00D040E6013301
:108CD00009933302F3E40C9F092F5FD0002C00D1DD
:108CE00082E1002900D1A8E15C4606991D0083704D
:108CF0004B460180344031020C438480C670099396
:108D0000012306930133984602339C463C33089373
:108D1000383B0193073B002700249A4647E733007E
:108D20009FE62F00FFE4012337001593FBE40123A6
:108D300037001093F7E4002337001593F3E4012183
:108D40002B0010918DE601212B00159189E600235F
:108D500015932B0085E637009FE5002304960B93BF
:108D60002B002D0234E60023AA460F93370033026E
:108D7000A5E448460E9001200990A0E44946042449
:108D80004F460C40082139400F07FF0F08976746F0
:108D9000002F00D1D1E00C9F062F9FD1002C00D1D5
:108DA0002DE106998370018081804946C370099145
:108DB0000121069100211D0088468C4600270024D1
:108DC0008A4608910191F3E6002C00D1E9E0002EDB
:108DD00000D0FDE0002300249846019306930493FD
:108DE0000793FF262B022E401E434B460E93012372
:108DF0000E808E808D703E00CD708D7109934BE595
:108E00000A07920F002E00D1D8E0032A00D145E1D5
:108E1000022A00D13EE104229346023A9046012004
:108E20000840824604935346002218A9029308275B
:108E30000B000B4806944844019207966A461E00B0
:108E400000258246147903931AE0C046D8450000F5
:108E500040B80910F6810000C9810000FFEF000052
:108E600002820000072319400123640030001C43E4
:108E70005A46013507F01CFDE4B25E4445451AD060
:108E800004212309E2080A403B4013430239A208A7
:108E90000A401343A207D20F1343944A4B4494460B
:108EA000634419780F42DDD0029B002BDAD00723F0
:108EB0008B431900D8E75046039B049A19785C78D5
:108EC0000901214301709978DC780901214341703F
:108ED00019795C790901214381709979DC7909015B
:108EE0002143C170002A13D1197A5C7A0901214308
:108EF0000171997ADC7A090121434171197B5C7B0C
:108F0000090121438171997BDC7B09012143C171F6
:108F10008021019A08300132019249008A428DD1A4
:108F200000224946724B069C079ECA54FFF71EFB5F
:108F30003700FFF7D5FB37009AE4002C13D0002947
:108F400000D1BCE501218A460131884602318C46B8
:108F50000431102720240191B7E52B0016E6B9460D
:108F60000A23FFF76AFB0121102720248A460131DA
:108F7000884602318C46043101910899002904D1B8
:108F8000494609910121069122E506991D000180BB
:108F900081804946099101218370C37083710691D4
:108FA00027E5012080460130019006300690083008
:108FB0000490103004240790FFF7E4FB0023022AFA
:108FC00037D0012A31D008229346063A904626E748
:108FD0000123984601330193063306930833049323
:108FE000103304240793FCE601218A4601318846A8
:108FF00002318C460431002700240191BDE7002195
:1090000000278A4688468C4600240191B5E7012056
:109010008046013001900630069000200424049020
:109020000790FFF7AFFBA9469BE5033293469046B6
:10903000F5E6934606329046F1E65C4606991D0039
:1090400083704B460180344031020C438480C670EB
:10905000099301230693002398469C4640330893C6
:109060000023002700249A460193A0E5099B3E00B7
:109070000B804B460E930023984699460193069326
:10908000049307930B930A93013300248F70099381
:10909000FFF7EEFB934602329046C0E6023A934653
:1090A00007329046BBE63700FFF7D0FB3300FFF7EF
:1090B000D7FB5846099B28400B802B0218434B4690
:1090C0000E93002307930193403399463F3B099346
:1090D00000233E0098460693049300242B008F70D3
:1090E000CD70888011E42B004AE5C046038A000059
:1090F00001820000F8B5524F524BC55D0400C65CBA
:10910000002D61D0504A0135A35A50490133A35272
:109110004B4BEDB2E554615CA9422AD200214C4888
:10912000E15423580133235003233340033B5D4272
:109130006B41484E0133A55D002D1BD0464D635D4C
:109140000133DBB26355454D655D9D424ED8012725
:10915000434D635D7B406355424BE1520023A35571
:10916000414BE35A5BBA9B049D089B0C2B43A350D5
:109170002150F8BD3D483E4E215C5B18DBB22354C4
:109180003C49A65D615A9E4234D23B4B2554E35C78
:10919000C91889048B08890C1943A150314AA35C72
:1091A0000133DBB2A354354AA25C9A4239D0344A27
:1091B000A25C9A42DDD2294BE25C002A1CD08022BC
:1091C000254B5200E252D4E7FFF782F92D4AA35C07
:1091D000002B09D0013BDBB2A354002B04D10122A8
:1091E000294BE5540733E254E55D8BE7214BE35A05
:1091F000A352BEE7A152BCE701201949635C43407A
:109200006354184BE254134BE254174BE35A5BBAC6
:109210009B0499089B0C0B430B4963500C4BE25089
:10922000A7E7194AA25C002AC1D1184AA25C120918
:1092300000D11032134962540121134AA154B6E7F8
:10924000EF810000E4810000F4810000DC81000077
:10925000FC810000F3810000F2810000E181000048
:10926000FA810000F0810000E8810000F181000037
:10927000E5810000F6810000DD810000E38100004F
:10928000E0810000F8810000F9810000DF8100002A
:1092900010B502F0C7FC10BD002330B583B00193B8
:1092A0000F4B14001B78002B02D1002003B030BDFF
:1092B0000C4D0A000023280010F04AFD0028F4D1CC
:1092C00080222100280001AB520010F0CFF80028C6
:1092D000EBD101980138FF3843425841C0B2E5E76D
:1092E0001843032018C00220C268F8B50400002A01
:1092F0000EDB51008B18DB00C31818003530FF302F
:109300000068002829D0A3181B7DA5789D4201D0B4
:109310000020F8BDE678092EFAD88B18DB00E31898
:109320001A003D32FF32276912689742F0DA6A4329
:10933000D219910089181A00490089193932090295
:10934000FF324D1C1268FF359542E1D8E1620028DA
:1093500009D0401820630120DBE74533FF331B6849
:10936000002BD0D1D4E71A00250049324533FF3213
:109370003435FF3310681B682A0098470028C7D08F
:1093800001202563C5E7C046F8B5394E040033789F
:10939000002B06D1374B1B68A3420BDC364B1C60FD
:1093A000F8BD364810F0B8FA00233370314B1B6813
:1093B000A342F3DD65002D19314BAD002F4F2D1960
:1093C000ED180122290038000FF0CAFE002849D10B
:1093D0000123280033703E6911F08AF803283FD931
:1093E0002818031F1B78012219004139192921D996
:1093F0002E2B1FD1C31E1B781A00413A192A01D8FF
:109400002033DBB2642B2BD1831E1B781A00413A28
:10941000192A01D82033DBB2732B21D1013802780D
:109420001300413B192B01D82032D2B2643A534287
:109430005A4101320021134B1348195013481E5052
:1094400013481A500120134A9854134A13481A50CB
:10945000134A144899503200290007F0F1FB9DE7A8
:109460000122E7E72900104807F0EAFB98E7C04629
:10947000184303200843032050B4022018C00220E0
:10948000684103206C070020788B00007C8B000073
:10949000808B0000848B000099920810888B00005C
:1094A0008C8B000020B2091008B20910F0B5C64636
:1094B000847903794279A34322401343342201255E
:1094C00000B5845C4B4A2C40825C120729D54A4F78
:1094D0004A4ABC46865C904682196244127895429C
:1094E00092415242002904D001360E35354046469D
:1094F000855580251D43002C26D10571837A934222
:1095000007D03523C45C293B2340002A20D0042BFC
:1095100060D000238272037300294AD080BCB84611
:10952000F0BD354E0F22B4461A40821862441678B8
:109530005F067F0FB54292413E4152423542D8D13B
:109540007F251D40002CD8D0437A002BD6D0D4E7FD
:10955000002BDED10133037382720029DED1437AFE
:10956000002B04D031220221835C0B43835431222F
:109570000121835C0B438354837C002B0CD031226C
:109580001021835C0B4383543523C35C0E32934319
:10959000802B01D17F3B0375437D002BBED035234B
:1095A000C35C7F2BBAD831220821835C0B438354E0
:1095B000B4E7437A002BDFD031220221835C0B43D6
:1095C00083543523C25C293B1340082BD4D1073B7D
:1095D000C372D1E7033B0373837200299ED1437AA0
:1095E000002B04D031220221835C0B4383542407D7
:1095F000C2D4BCE7C9810000CB810000DB81000040
:10960000C17B437B827B8B430A4013433422F0B5FA
:10961000815C8256002A26DB3E4A825C9A4213D045
:10962000072401221C40A2403B4C045D1D0717D4B7
:10963000250095432A00384D42550125254201D089
:1096400015421AD0334A8354F02200241343BA3A05
:109650008454890702D5827C002A00D04373F0BD70
:109660002243D2B2E7E72022825C002A02D17F3275
:109670001340D1E780221343CEE7867902794479FB
:10968000B2433440224354B2002C19DB3F27234C11
:109690001740065D740835420BD1032C32D00F22DF
:1096A0001F4E64000419A55B15403A012A43A253DA
:1096B000C8E71A4A85180F222C19BA43A272C1E7CB
:1096C0000724164F16093440C4550F2764083A4042
:1096D000354206D0114D45192C190F256A40A2724A
:1096E000B0E70F4E6500B4464519AE5BBE4332434A
:1096F0006646AA53032CA5D18024084AE4018218A7
:10970000D4849FE78024054AE40182181781D48419
:1097100098E7C046CA810000C9810000148A000091
:10972000168A00000F23F0B5CE4647461940284B55
:1097300080B5C154274B9C46614489000A58002AD1
:1097400035D080235B01D51880239B01D418C0231A
:109750009B01D118AC461300270089469626760057
:1097600083511D4B04368351803E8351043E825108
:109770009A2266465200865004328350803A8350C3
:10978000043A85508832875004328350803A83509F
:10979000043A84504C468832845004328350803AD4
:1097A0008350C423C150C0BCB946B046F0BD80212F
:1097B00049018C468021094B89015F18C02189012C
:1097C00089469C4499441A0065463C004946C5E7D1
:1097D000C881000062200000340A032008CA022069
:1097E000F0B54746CE46002380B5394FDFB0684616
:1097F00038493B6010F020FD002861D13B6816AE6F
:109800001F2B56DC10239846334B9946310068468F
:1098100010F07CFD00284CD1B37E002B49D042468D
:10982000337B3D681A4242D172236B44180010F01A
:109830005FFE03283BD97930FF30684403000B3BBF
:10984000FF3B1B782E2B32D103000A3BFF3B1B78DA
:109850001A00413A192A01D82033DBB2732B34D1D4
:109860000300093BFF3B1B781A00413A192A01D833
:109870002033DBB2732B1AD10838FF3803781A0073
:10988000413A192A01D82033DBB2642B0FD172235D
:109890006C006419A40064196B444C4419000C2238
:1098A000200010F0F5FD0023013523733D601F2DCE
:1098B000ACDD684610F010FD3968084807F0C0F9C3
:1098C0005FB0C0BCB946B046F0BD642BC8D0EEE76F
:1098D0000843032040B209106841032044B2091034
:1098E00070B5FF2002F092FC082002F071FCD02439
:1098F000802324065B0063620920636102F068FC38
:1099000080239B0063620A20636102F061FC802374
:10991000DB0063620B20636102F05AFC80231B01B1
:10992000A362152002F054FC802380259B03ED04E4
:1099300063621A2002F04CFC6562192002F048FCB8
:1099400080239B0463621B20636102F041FC80233F
:10995000FA201B056362002163618000A56103F0AA
:1099600075FA656170BDC046D023FF201B061A6AD8
:109970000240DA62802252009A61C046C046C04668
:10998000C046C046C04659685A61084080218900D7
:109990009961C046C046C046C046C046C0465A68E7
:1099A00059611202104380B27047C04603002D2057
:1099B000F0B55C791A5C002C09D0022422431A54B9
:1099C00004301C5C25382040082800D197E0187A24
:1099D000002804D03120185C000700D469E0987B8F
:1099E00000280AD010203F2402431D301A540430AE
:1099F000185CA043802800D17EE0587C002807D066
:109A00003120185C7F2803D80820024325301A54DF
:109A1000DC8B9869E50701D5401A9861C50F5D7721
:109A200030255D5D00284CDBE00501D5988A986102
:109A3000586AAD0626D53221595C00293ED119005D
:109A4000C50F20314D72002827DBD98DC80703D5FB
:109A50008020024353381A542C269E5D5D8DD00918
:109A6000164201D0022211430227264E6A086408DA
:109A70003440324049083C433A433140DC835A8504
:109A8000D985F0BD5D8DED07D9D5401A1900C50FF8
:109A9000203158624D720028D7DA1B485862087A84
:109AA0000028D2D1203002430D301A542C380872CD
:109AB000CBE7012002432C301A5490E7013858625A
:109AC000BDE711481E7F986140206F060BD5012726
:109AD00002432D207E40D2B21E771A54D430FF307C
:109AE0000443DC83A0E7002E9ED102432D20D2B296
:109AF0001A542C38187797E77F3818747DE70738A1
:109B0000D87164E77F7F0000FFFF0000030070B59D
:109B10000F2900D9A5E0584A8900525897463022AB
:109B20009A5C0078D2075DD49A785B7890431340B2
:109B3000184357E03022825C407A91070DD4DC7ADA
:109B4000997AA043214052B20843002A05DA1A7FCD
:109B5000002A00D08DE07F32104031225F219A5CD4
:109B60002D248A43203A511E8A41072152428A43BA
:109B7000195DEF320A402C217F251A55595C11409E
:109B80000D422FD1FF2115401D55DA8D8A43DA850C
:109B900028E030229A5C0078D20764D531229C5CA0
:109BA000273A22402D25023A51424A41595DFC3262
:109BB0000A402C217F265A55595C11400E4205D18E
:109BC000FF2116405E55DA8D8A43DA850E22224047
:109BD0000A2A03D00C222240082A03D10022DA717B
:109BE00000E0C07A70BD2D215D5C40222C009443C2
:109BF000007E143A5C549A5C22405206F2D13F2215
:109C000016E0407EEEE78078ECE7007DEAE7808AA8
:109C1000000AE7E72D215D5C20222C009443406A76
:109C20000C325C549A5CC0B222405206DAD15F22F8
:109C30002A405A54DA8DD2318A43DA85D2E7406A13
:109C40000012C0B2CEE73022805CCBE73122805CCC
:109C5000C8E72D22805CC5E72C228023805C184356
:109C6000C0E70020BEE799785A7888430A4010433D
:109C700094E78022104370E7D8B5091070B50F291A
:109C800004D87C4B89005B589F46427070BDFF2111
:109C9000838A8B4313438382F8E7017D12020A43D0
:109CA0002D218282455C40232C009C434454143B6C
:109CB000C35C23405B0606D13F232B404354C38D36
:109CC000D2318B43C385002382610377DEE7037DB6
:109CD00012021A4382822D22845C40232100994380
:109CE0008154143BC35C0B405B06CFD13F23234020
:109CF0008354C38DD2329343C385C7E7FF252D21FB
:109D0000038C12022B401A430284465C2023340049
:109D10009C4344540C33C35C23405B0605D15F2352
:109D200033404354C38DAB43C38528230021C15422
:109D30004262ABE73023C2549206A7D40122438D7E
:109D400093434385A2E7FF21038C8B431343038492
:109D50009CE73123C254253B13400C2B78D03F2382
:109D600011009943C02900D090E79206D20F0274E7
:109D70008CE7141C7F2A64D82D212C22435CA3433A
:109D80007F244354825C1A40144200D07EE7FF22B5
:109D90001C404454C38D9343C38577E72C2154B2B0
:109DA000435C002C4FDB934343546FE731238272B3
:109DB000C35C5F221900914320294DD02D21455CC1
:109DC00018222C00944344541432825C22405206E0
:109DD00006D167222A404254C28DD2318A43C285BD
:109DE0003F229343802B00D050E7002303744DE7BC
:109DF00031234270C15C273B0B402D24023B5A4269
:109E00005341025DFC3313402C227F250355825CB5
:109E10001A40154205D1FF221D400555C38D9343BD
:109E2000C3850E230B400A2B04D00C230B40082BB8
:109E300000D02BE70023C37128E7C27226E78270A7
:109E400024E77F2498E77F242240134343541DE7EF
:109E50009307DB0FC37182E72D22845C102321005E
:109E6000994381541C33C35C0B405B0600D00DE763
:109E70006F233CE718B60910802270B5344D0400FA
:109E80002800FF21520106F013FD00238022A35079
:109E90000432A3500432A3500432A3500432A3501E
:109EA0000432A3500432A3500432A3500432A3500E
:109EB0000432A3500432A3500432A3500432A350FE
:109EC0000432A3500432A3500432A3500432A350EE
:109ED0000432A3500432A3500432A3500432A350DE
:109EE0000432A3500432A3500432A3500432A350CE
:109EF0000432A3500432A3500432A3500432A350BE
:109F00000432A3500432A3500432A350114B2560F5
:109F1000A5602561A5612562A5622563A563256409
:109F2000A5642565A5652566A56625676360E3606C
:109F30006361E3616362E3626363E3636364E364F5
:109F40006365E3656366E3666367E367A56770BDA2
:109F5000341A0320340A032070B504006C30FFF774
:109F60008BFF2300EC228533FF33A3500432A35030
:109F70002367E366424B0432E318A3500432A35034
:109F8000A36763673F4B0432E318A3500432A35026
:109F9000803AA350E3673C4B8432E318A350043269
:109FA000A350803AA350043AA350384B8832E318A8
:109FB000A3500432A350803AA350043AA350344B28
:109FC0008832E318A3500432A350803AA350043AD5
:109FD000A350304B8832E318A3500432A350803A88
:109FE000A350043AA3502C4B8832E318A3500432F8
:109FF000A350803AA350043AA350284B2000E15CC0
:10A00000FFF790FB264BE258002A32D1802149010C
:10A010000800244DA623A8265B00E250224B7600C0
:10A02000A351803EA351043EA551AA256D00615164
:10A03000AC2149006350803963500439605080215D
:10A04000AE2089015118400021500430235080383F
:10A05000235004382150C02189018C46B22162442A
:10A06000490062500431635080396350E423E25068
:10A0700070BD80235B01D01815000100CAE7C046FF
:10A08000841100008421000084310000844100001C
:10A09000845100008461000084710000C8810000C8
:10A0A00084810000341A0320340A032070B5027E34
:10A0B00004000B2A0AD8C8499300CB589F4643781E
:10A0C00003229343637080235B00E38000232376A5
:10A0D00070BD2A23C35C002B00D024E10B23237620
:10A0E000F6E7C369002B00D1E1E0013BC361EFE774
:10A0F00003234179B94A0B405B009A5AFA232500A1
:10A100009B005343E26808099BB21435002A01DB27
:10A110001432A518002800D1CCE0012800D118E1A4
:10A12000021F012A00D82AE1052800D835E10022C3
:10A13000A2752A78002A01D0013A2A70C90602D5F0
:10A14000A278013AA270E361A54B2383C0E7042201
:10A15000C168657943782A400420002900DAC5E007
:10A1600065182D7D002D01D10343DBB2002AA7D055
:10A170004A005218D200A21811003531FF31096887
:10A18000002900D10EE1A278AA4299D010221343EF
:10A1900096E700222B232A21C2544379DB06DB0FEA
:10A1A00043540262FFF7A0F8002876D08023E361D1
:10A1B0008C4B23838CE72B230122C2544379293211
:10A1C000DB06DB0F835400230362FFF78DF80028C2
:10A1D00063D0E26853009B18DB00E3184133FF3380
:10A1E0001B78002B00D08AE08023E3617E4B238321
:10A1F0006EE783794178002B02D004231943417024
:10A20000236A206BC05C013320710120A071022001
:10A21000014323626170FF2B56D84023E3613F3B2B
:10A220006276237654E70123022283714378134335
:10A23000437090239B00C3616C4B038348E7C26863
:10A2400053009B18DB00C31835338279FF331B683A
:10A25000002A43D10179E06A226A1B189954236AC3
:10A2600001332362FF2B53D94023E361604B2383E7
:10A270002EE7036A02215A1CC318026224331B789A
:10A2800003710123837143780B434370052A1DD862
:10A290004023C361574B03831AE7102263781343AB
:10A2A0006370FA23DB00E361534B238310E7437EA3
:10A2B00003760DE72A78002A47D0013A2A70E36135
:10A2C0004E4BA075238303E70A22A6E72423C35C31
:10A2D000C3704023C361484B0383F9E604214278ED
:10A2E0000A434270002200210271B4E7217D002957
:10A2F00001D10343DBB2002A00D1E1E646E7402268
:10A300006378134363706423E3613B4B2383DFE68D
:10A3100001230222A3716378134363704023E36136
:10A32000324B2383D4E6C3780133C3700023036226
:10A33000FEF7DAFF00281DD02B23E35C80220633D2
:10A3400063760123E2612376C2E60323A0702376BD
:10A35000BEE6A27821798A422BD20132A2702A78F5
:10A36000522A01D801322A700122E361234BA275DF
:10A370002383ADE61022637813436370AEE60122B7
:10A38000A2752A78522A01D801322A70C90600D44F
:10A39000D9E6A2780132A270D5E6A27D002A00D1CA
:10A3A000C7E6EEE74532FF321268002A00D0EAE63F
:10A3B000ECE68A420CD9013AA2702A78002A01D030
:10A3C000013A2A700022E3610C4BA27523837FE6D9
:10A3D000032323767CE6C04658B60910C8BB091093
:10A3E0000103000001060000010700000108000051
:10A3F000010A000001090000010B00000102000039
:10A400000323F0B5194001292FD002292BD00029B0
:10A410002DD1457814090D2C31D001231900294084
:10A420002B4221D1C180C17DC375803342714370FD
:10A43000002938D14B4E4C494C4D4D4F072C69D912
:10A44000042313400B2C00D878E0002B30D00C2CC8
:10A4500037D091234370FA23DB009C46454B61447F
:10A46000C161038300E0C270F0BD8270FCE700238D
:10A47000027102228371437893434370F4E70176BB
:10A480008171290099434170120713D5023BC371B2
:10A49000C368002BE8DBC3181B7D002BE4D1042329
:10A4A00019434170E0E70A250027334E3349C5E7D9
:10A4B0003900CCE701231A002A402B42E8D1C271AF
:10A4C000E6E70023C2680362002AC2DB53009B1840
:10A4D000DB00C3181C003534FF342468002C3AD04C
:10A4E00024238218127D0924C25402690133C25404
:10A4F00000221500C37840319C4255416C422340F4
:10A50000262403552723253CC4541D4B0285C161D5
:10A510000383A9E7A123C2684370002A0ADB530022
:10A520009B18DB00C3184133FF331B78002B01D08D
:10A53000E1234370134BC561038395E7002B00D1E2
:10A540002E000923A3429B415B420433437601233F
:10A55000C661037688E74533FF331B68002BBFD104
:10A5600077E7C0465AC3000050C300002A4E0000DF
:10A57000204E0000010B00003A750000307500000D
:10A58000010900000102000070B5FF2304000D0066
:10A59000FE209D430002854226D0480A7E2818D01E
:10A5A000080B0905090D002A00D16EE0C000201833
:10A5B000C26E1C00515CD0221206106A8443D46221
:10A5C000106941400B40D3618023DB0093615361EC
:10A5D00070BD002AFCD0D02218001206116A8843F0
:10A5E000D06211698B43EEE7E0200840802800D15B
:10A5F0009CE030D8402800D188E000D979E00028DC
:10A6000000D15CE0A448FE25814200D9B2E0002AD6
:10A610002BD1D0221206106A03408020C000D362E2
:10A620009061C046C046C046C046C046C04653685A
:10A630005061DBB2C90700D4BDE198491A098C46C4
:10A640000F210B400721A21862444B4013700122D6
:10A65000934BE254BCE7C02800D17EE0A0230B401E
:10A66000A02B27D0FF25002AB2D0FF22D023100034
:10A670001B06196A8843D862186968400240DA618B
:10A680008022D2009A615A61A2E7D0221206156A8E
:10A690002B40D3628023DB009361C046C046C04696
:10A6A000C046C046C046C000241855685361236F99
:10A6B0005D548DE7002A00D18AE7FE25D5E7794869
:10A6C000814200D99CE001200140002A00D1FDE038
:10A6D00000250029C9D0744BE35C112BC5D81A00A2
:10A6E0000C3A012AC1D9714AE318944663441D7893
:10A6F000BBE76028B6D10F200140002A00D186E0D8
:10A7000020003830FFF702FA0500AEE70F25684B4E
:10A710000D40EB40DB0745D40026002A00D19DE028
:10A720002900201DFFF7F2F905009EE7480700D435
:10A7300083E003200140002A00D1E6E05D4B9C4607
:10A740006444012900D158E1022900D153E10029D4
:10A7500000D048E16578E17187E703200140002AD5
:10A7600027D0002900D1F0E0012900D1E3E0524BCD
:10A77000E55C7AE7002A00D077E7D0221206116A5A
:10A780000B40D3628023DB009361C046C046C046C5
:10A79000C046C046C046516820005361C9B2FEF7AA
:10A7A000C1FF15E7002A58D000212000FEF77EFEE9
:10A7B000B6E7002900D00BE7D0221206116A0B4041
:10A7C0008021C900D3629161C046C046C046C046E0
:10A7D000C046C046536851610F2180221940524241
:10A7E0000A4336496254082213405A425341344ABC
:10A7F0005B421340334A9446334A6344A350E7E62E
:10A80000002A00D1E4E601258D436D002DE7D0201C
:10A810000006026A1340C3628023DB008361C046E6
:10A82000C046C046C046C046C0464268436120009C
:10A83000D2B23830FFF722FACAE6002A00D187E008
:10A840001C4B9C4603236444257A9D43E368013BEB
:10A850005A42534101331D4307E70126D023FF220B
:10A860001B06196A0A408021C900DA629961C04654
:10A87000C046C046C046C046C0465A68201D596101
:10A88000D2B22900FFF7FAF9002E00D1A0E600218C
:10A890002000FEF70BFE9BE62FFE0000038A00005F
:10A8A0000182000007FE0000EE810000DC81000054
:10A8B0000A800000448A0000AA8B0000A98B0000D7
:10A8C00090E8FFFF10270000AC8B0000002900D1AA
:10A8D00074E04B4BE35C112B00D979E6D022FF21C9
:10A8E0001206106A0140D1628021C9009161C04600
:10A8F000C046C046C046C046C04650685161414A45
:10A90000E31894466344187062E6D0200006026A99
:10A910001340C3628023DB008361C046C046C0464B
:10A92000C046C046C04642684361374BD2B2E018C9
:10A93000FFF766FD4CE68023344A5B42A15C0B4383
:10A94000A354334BE55A2D0A8FE6304BE55C8CE679
:10A95000D0221206116A0B408021C900D362916196
:10A96000C046C046C046C046C046C0465368516156
:10A97000D8B20021DA0707D402310A000240551E7E
:10A98000AA415242114001391F4A5B07A218D16007
:10A990002021DB0F13610B0010720340014200D035
:10A9A00016E680201B494000537060521A496350DC
:10A9B000D37513760CE6194AA35448E6D022120642
:10A9C000116A0B40D3628023DB009361C046C0460E
:10A9D000C046C046C046C046516853611F23084A5E
:10A9E0000B40A354F4E500230222A3716378257978
:10A9F0009343637039E6E57837E6A57835E6C046D7
:10AA0000EE810000DC810000448A0000A98B000078
:10AA1000AA8B0000468A0000488A0000028A0000D3
:10AA2000F0B5DE464E4645465746E0B5C84A0D00ED
:10AA30008DB00021040005F03BFFB62301225B002E
:10AA4000E25423002A007133FF3343CA43C303CACD
:10AA500003C3C04BEA69E2506B6A002B01D0BE4AC7
:10AA6000A350EB6A002B01D0BC4AA3506B6B002BA8
:10AA700001D0BB4AA350EB6B002B01D0B94AA350C5
:10AA80006B6C002B01D0B84AA350EB6C002B01D0AB
:10AA9000B64AA3506B6D002B01D0B54AA350EB6DA5
:10AAA000002B01D0B34AA3506B6E002B01D0B24AE9
:10AAB000A350EB6E002B01D0B04AA3506B6F002B5C
:10AAC00001D0AF4AA350EB6F002B01D0AD4AA35089
:10AAD0008423EB58002B01D0AB4AA3508C23EB58B6
:10AAE000002B01D0A94AA3509423EB58002B01D08E
:10AAF000A74AA3509C23EB58002B01D0A54AA35092
:10AB0000FEF7EEFE012733220021601D05F0D0FE86
:10AB10000126FF2320007F4233220021237163732B
:10AB20002672E672667426752783A784393005F08D
:10AB3000BFFE3823E754230038331E71DE714123F2
:10AB4000E754230041331E71DE714C23E7520C336E
:10AB5000E752914BB2229846A04452000021404651
:10AB600005F0A6FE8C4BE6544346DE706A69DF6052
:10AB7000002A00DCE9E000218848D31704F0A4FF94
:10AB80008025874BED01E050864B874AE552002334
:10AB9000A352864A0021A352FF22854BE254854BE3
:10ABA000EF3AE01805F084FE0122834BFF21E254C6
:10ABB000824BBF32E254824B824A8348E2522A00DF
:10ABC00005F076FE2000FFF7C7F9804A804B05921A
:10ABD000012291469246E3180A93059B0A9D5E1E48
:10ABE0000023B3469C462E006246059B00279B5CD3
:10ABF000052210004946D8460796E346032500245F
:10AC000000220600BC460093DB1019400191009918
:10AC1000681C4B460141194002235B1B042B00D8E2
:10AC2000DCE0019B06935B46002B51D0434648462F
:10AC30001B781F11074058460497082800D176E07A
:10AC4000002961D1414657468878DB1001110F4039
:10AC50005146C01003970B4008400699002911D0B7
:10AC600001215940049B1940039B002B01D000286F
:10AC70003FD0002906D08023DB00234161461943E1
:10AC80008BB29C46013E0234013D002EBFD1012310
:10AC90006746DC46C3469846C44463463000079E78
:10ACA000C344378072800436092B9DD10A9B494AE0
:10ACB00028330A93059B30800933708005939A42AC
:10ACC0008BD10DB0F0BCBB46B246A946A046F0BD44
:10ACD000002919D1019B002BD4D05046059B5B78ED
:10ACE0001B111842CED0434698785346C0101840E6
:10ACF000BFD1002915D08023DB0023419BB26146E0
:10AD000019438C461A43BDE7802180230901214164
:10AD1000DB002341604689B20B43184383B29C4653
:10AD20000A438023DB0023419BB21A43AAE7002990
:10AD3000EAD101990029A5D05146DB100B40012131
:10AD40004B4004990B40190093E7234818E7C0468D
:10AD5000B4DA010084810000888100008C81000049
:10AD60009081000094810000988100009C81000087
:10AD7000A0810000A4810000A8810000AC81000037
:10AD8000B0810000B4810000B8810000BC810000E7
:10AD9000C0810000C4810000448A00000080841E3D
:10ADA000408A00003A8A00001E8A0000208A0000C3
:10ADB000C9810000038A000001820000A98B000005
:10ADC000AA8B00000080FFFF08CA022048B80910C3
:10ADD000B08B0000A8BB0910B35A0000009B4F467F
:10ADE00033411F400B976B1C00D135E1009B4F4650
:10ADF0002B411F405B460697002B00D10BE14346D9
:10AE00001B781F00089307414B461F405B46049781
:10AE1000082B00D1F2E04746BF78089B0297074114
:10AE200038005746074018000397304157462B41DA
:10AE30000740504603400298099730415746074063
:10AE400002980897284157463840002900D05BE710
:10AE50000B99002900D100E70499002922D0099913
:10AE6000002957D00699002946D001214B4003996B
:10AE7000DBB2002900D188E00899002900D09AE0CF
:10AE8000002800D0AEE08021C900214189B2002B0A
:10AE900015D063460B439C4680231B0123411A4374
:10AEA00092B23EE7069B002B26D0039B002B00D1DD
:10AEB000E8E6089B002B00D083E0002824D1802303
:10AEC0001B0123411A438023DB00234192B29BB232
:10AED0001A43D7E64846059B5B78184043469B7863
:10AEE00003903341484618400890002900D00BE7F2
:10AEF0000B9B002B00D1C5E6039B002B00D1C1E6C4
:10AF0000089B002B00D0BDE680231B0123411A4380
:10AF100092B2B7E6069900291CD001214B40D9B264
:10AF2000039B002B29D0089B002B32D180231B01CF
:10AF300023419BB2002848D060461843844600292C
:10AF400000D1DFE68021C9002141084381B28C464F
:10AF50001A4397E680231B012341614601209BB2DF
:10AF600019438C4608994140C90700D48AE60399E1
:10AF7000002900D186E61A4384E680231B01234181
:10AF80006046184383B29C4673E6002B00D072E6FD
:10AF900078E680231B0123410028F1D16046184345
:10AFA00083B29C468023DB0023419BB2002900D062
:10AFB000A5E61A4366E60028E7D1002B00D09AE602
:10AFC000AFE6002800D05DE6ABE660461843844655
:10AFD000002911D08021C9002141084381B28C464B
:10AFE0001A439EE6002B8FD08023DB00234161466D
:10AFF00019438BB29C4687E71A4392E6089B4F465B
:10B00000180030412B410740484603400020099773
:10B010000890039019E7059B5F783B000341484681
:10B0200018403B000390334148461840434608907F
:10B0300098784B4628411840002900D064E60B9BC5
:10B04000002B00D02EE7069B002B00D11AE6039BB5
:10B05000002B00D116E60AE65B46002B00D139E74B
:10B0600043464F4658461B781F400497082810D087
:10B0700040464F4680783341074003974F46304162
:10B080001F404B460340089300230997180006937E
:10B09000DBE6334148461840002309900893180026
:10B0A00003930693D1E6C046F8B5FF23FF2580241D
:10B0B00043609C460121002321221F4E64000700AB
:10B0C0002D028660C560046181828354002224378A
:10B0D00043847A723627C38503638386C255056429
:10B0E000674648258763C6634464415301004C3179
:10B0F000CB824A724B814A756821436643520100F4
:10B100006A310A700D490E4D41184A7044530D4C76
:10B11000802503510C4BCA750A760C4AD024C252C2
:10B12000FEF71AFFFA20ED042406A5610021800035
:10B1300001F08CFE6561F8BD01000001448A000049
:10B14000468A0000488A0000C881000000FFFFFF17
:10B15000F0B5D3B029AC94220021200005F0A8FB63
:10B160009421334B334A2C93334B62502E93334B01
:10B17000982230938023DB01A350314A083162507A
:10B18000A0222100A35068460432319305F096FBBB
:10B190002C4C69462000FFF743FCFF2321229C46EC
:10B1A00063600023FF25A3542D2700222D020120D8
:10B1B000E560256448258021E2550937E255674658
:10B1C0006053A08254302254013023520B30225459
:10B1D0000130235206302352023022541A484900CB
:10B1E00022541A48216121526164194963846350D1
:10B1F000E3852363A3866366164B174EE254174B11
:10B200002000E254164B174AA660E252A763E66399
:10B210008025D024FEF7A0FEFA202406ED040021AC
:10B22000A561800001F012FE656153B0F0BDC0461B
:10B230009192081028E20120225600002862022084
:10B24000282202206C070020458A0000468A000060
:10B25000488A00005B8A0000010000015C8A00004F
:10B26000C881000000FFFFFF10B548283FD04428E8
:10B2700022D0031F192B0DD903001E3B082B2CD9FC
:10B280002738C0B2BF2804D81D4B4000C25E531CF3
:10B290002BD110BD1B4BC35C1A00FF2A21D00F20FD
:10B2A000012218405B065B0F9A40174913000A0001
:10B2B000415C0B438354ECE7144B1C68002CE8DD25
:10B2C000134B21001868013004F0B0FB081EE0DBCE
:10B2D000A142DEDAFEF758F8DBE70E4BC35C1A003A
:10B2E000DBE70D48FFF7E0FED3E7D3B2D5E7002058
:10B2F0000A4B0A220100D86002F0C6FDFEE7C046F4
:10B3000088B6091010B809103789002008430320B7
:10B3100050B40220EAB709106C07002000800540F5
:10B32000031F192B1ED903001E3B082B09D92738F0
:10B33000C0B2BF2804D80E4B4000C25E531C15D1CA
:10B3400070470C4BC35C1A00FF2AF9D00F21012073
:10B3500019405B06084A5B0F984013008A5C8243E1
:10B36000CA54EDE7054BC35C1A00EDE7D3B2EBE737
:10B3700088B60910EAB709103789002010B80910FB
:10B38000F0B5DE46574645464E46E0B50D208DB039
:10B3900002F064FD0A2001F0C7FDB64D0BABAC6AAC
:10B3A0000AAA200009A900F0B3FD8246002803D1B3
:10B3B0002100B14802F062FE0B9A0A99099800F048
:10B3C0006BFD05F049FC0AF015F9AC4805F050FB9F
:10B3D000AB4C0021200024224030256005F068FAA3
:10B3E0000222A84B1025E3630123A2640C32E2641D
:10B3F00004322265063AA2655032A354636465653F
:10B4000000F0CAFF060000F0C7FF31000200200074
:10B4100005F08EFD08229C499C4806F04BFAC82294
:10B42000002192009A4805F043FA9A4805F020FB63
:10B43000994B9A481D6005F04FFDFFF789FE0023E8
:10B4400099460393964B974C0193974B0593974BD3
:10B450000693974B0793974B9846974B9B464346CB
:10B46000C84699465B46D02580279B6A934E049335
:10B470002D06BF03AF61FEF777FA01226B682080CB
:10B48000DB0A1340A3706F61FEF76EFAA278010029
:10B490002000FFF779F88A4BE35CDB0604D4012235
:10B4A000884BE3581A420AD02000FDF723FE854B53
:10B4B000E358DA43920745D0DA43520737D0814A3E
:10B4C0000133013EA350002ED4D10120002140427F
:10B4D00008F0B2F8059A1378002B0ED1069B1B7862
:10B4E000002B0AD001231370FEF77AF9079B1B6823
:10B4F000002B02DD0020FDF747FF5B469D6A049BA1
:10B50000ED1A714BE550039B9C46AC446346039394
:10B5100001239C46E0444346FA2B00D19CE06B4853
:10B52000401B00289EDDC11701F090FC9AE7200027
:10B53000FCF710FF634A013EA3580133A350002ECD
:10B5400098D1C2E701212000FDF7B0FF2000FEF7EF
:10B5500057F85F4BE279E35C9A4273D03522A15CE5
:10B56000002B71D0343A0A40E3715A4B6272E358AF
:10B57000594AA25C002B4BD0022B00D20223554922
:10B58000023B6350002B43D1544B5549E1520F23EA
:10B59000134060221343504AA354237C002B59D0FC
:10B5A0003523E25C253B134001220021DB06DB0F43
:10B5B0005340DBB22174201D0221A374FEF7F6F97B
:10B5C00023003833029002211800FEF7EFF9029BA6
:10B5D000002B33D1002831D180239B046B6101986B
:10B5E000FEF764FD0198FEF761FD019A3D491300E5
:10B5F000D2888C461000411E88413B496344585410
:10B60000002A15D1802212056A612E4A9B5853E701
:10B61000217C50B20023D2098A42CBD03523E25C90
:10B62000253B13400028BFDADB065146DB0FC1E79C
:10B6300080221205AA61234A9B583DE780239B0480
:10B64000AB61CCE700228FE701220120114041408D
:10B650000A4089E70021ADE7FA21039804F00EFAC9
:10B66000164A0100484605F0EBFA0023984603937A
:10B6700055E7C04674B2022094B209105CB20910BA
:10B68000A430032000002050AC060020A8BB091005
:10B690008C03002084B2091000200340C100002068
:10B6A000B09100206C0700201943032016430320AB
:10B6B00008430320C8B2091000400540409C000028
:10B6C000028A0000B0DA0100B4DA0100204E000066
:10B6D000F9810000AC8B0000A98B0000AA8B000050
:10B6E0000080FFFFBC75FFFFA88B000010B509F0BC
:10B6F0000BF910BDF0B54F464646D646C0B5884654
:10B700000700140009F0EAF8012808D04146380083
:10B7100009F0FAF8E0BCBA46B146A846F0BD0123EC
:10B720009946B24B00259A46B14E23784A462B41A2
:10B730001A4207D033782B411A4203D15346585D41
:10B74000FFF792FD0135082DEFD1A078002800D039
:10B7500050E1E078002800D02CE12079002800D0CA
:10B760000DE16079002800D0EEE0A079002800D03B
:10B77000CFE0E079002800D0B0E0012399469B4B50
:10B7800000259A4633784A462B411A4207D023783F
:10B790002B411A4203D15346585DFFF7C1FD0135D5
:10B7A000082DEFD1B07800287DD1F078002865D140
:10B7B000307900284DD17079002835D1B079002832
:10B7C0001DD1F079002805D108222100300005F0B4
:10B7D00075F89BE7A3788342F6D0E3788342F3D0F1
:10B7E00023798342F0D063798342EDD0A3798342F9
:10B7F000EAD0E3798342E7D0FFF792FDE4E7A3784C
:10B800008342DED0E3788342DBD023798342D8D0F1
:10B8100063798342D5D0A3798342D2D0E37983423E
:10B82000CFD0FFF77DFDCCE7A3788342C6D0E37885
:10B830008342C3D023798342C0D063798342BDD091
:10B84000A3798342BAD0E3798342B7D0FFF768FD8A
:10B85000B4E7A3788342AED0E3788342ABD02379B8
:10B860008342A8D063798342A5D0A3798342A2D032
:10B87000E37983429FD0FFF753FD9CE7A37883428F
:10B8800096D0E378834293D02379834290D0637932
:10B8900083428DD0A37983428AD0E379834287D0D3
:10B8A000FFF73EFD84E7A378834200D17DE7E3788C
:10B8B000834200D179E72379834200D175E7637928
:10B8C000834200D171E7A379834200D16DE7E37928
:10B8D000834200D169E7FFF723FD66E7B37883422F
:10B8E00000D14AE7F378834200D146E733798342B7
:10B8F00000D142E77379834200D13EE7B3798342B6
:10B9000000D13AE7F379834200D136E7FFF7ACFC88
:10B9100033E7B378834200D12BE7F378834200D139
:10B9200027E73379834200D123E77379834200D13B
:10B930001FE7B379834200D11BE7F379834200D13B
:10B9400017E7FFF791FC14E7B378834200D10CE7C7
:10B95000F378834200D108E73379834200D104E7CA
:10B960007379834200D100E7B379834200D1FCE6CA
:10B97000F379834200D1F8E6FFF776FCF5E6B37879
:10B98000834200D1EDE6F378834200D1E9E63379D2
:10B99000834200D1E5E67379834200D1E1E6B379D1
:10B9A000834200D1DDE6F379834200D1D9E6FFF787
:10B9B0005BFCD6E6B378834200D1CEE6F3788342CF
:10B9C00000D1CAE63379834200D1C6E67379834257
:10B9D00000D1C2E6B379834200D1BEE6F379834257
:10B9E00000D1BAE6FFF740FCB7E6C046D0BB09106D
:10B9F00030410320B378834200D1AAE6F378834232
:10BA000000D1A6E63379834200D1A2E6737983425E
:10BA100000D19EE6B379834200D19AE6F37983425E
:10BA200000D196E6FFF720FC93E6C0467047C0467B
:10BA3000F0B5DE4657464E4645460400E0B50E00DA
:10BA400083B0042100F09AFB2207530F0920984687
:10BA500002F08EF904F070FE5D4904F066FE5D4967
:10BA600004F04FFE051C300004F066FE011C281C8B
:10BA700004F047FEFA21890504F057FE564904F008
:10BA80003AFE8321C90504F050FE04F07DFE4346D2
:10BA90009B0043449B0099460026FF2201254F4B03
:10BAA0002C404B441E609E60DE601A6158601D6031
:10BAB000012005F037FF4A4B6400186001209B46C7
:10BAC00005F030FF474F3860012005F02BFF464B53
:10BAD000424618609A465B4618321968D2030192B2
:10BAE000424ACB021340C00203434148019A03403B
:10BAF0000920134303439C46A0233E4A8901DB05EA
:10BB0000CB181A6090463C4A44449346D9444A466E
:10BB10005A6004229A6062461A613B68374A9C4622
:10BB2000DB021340019A13430343A0206246C00581
:10BB30008146920132484A44106032488146494465
:10BB4000516080219160136163462A009A402E4B18
:10BB50000C201A602D4900F063FC01210C2000F03C
:10BB600039FC53461B682A4AD9021140294A9B01D5
:10BB70000A43A021C9058C462749634419605C60CB
:10BB80000C00083C9D6020001A61894600F0DAFE36
:10BB9000802200214846120104F08AFE8020000124
:10BBA00020220021484404F083FE1C4BA022E650D2
:10BBB0001B4BD205E6523B689D408623DB00D550E7
:10BBC00003B0F0BCBB46B246A946A046F0BDC04695
:10BBD00000007A4400007F430AD7A33C00000540E0
:10BBE000384103205C4103203C410320FD871FFFB7
:10BBF000FF7FE0FF444103200C000540FD7F00FF74
:10BC000054B402203C0000501424005029A2022009
:10BC1000FDFF1FFF11801F00ECA20220280800007A
:10BC20002C080000802130B5124B134A09019A5AA2
:10BC30008A421ED2114D5C5B621C92B28A428941DB
:10BC40001C190A4020725A531868EFF3108172B61B
:10BC50000268002AFCD0BFF35F8F074859601A5A68
:10BC600001321A521B68BFF35F8F00221A6081F302
:10BC7000108830BDE4A202202C0800002808000033
:10BC80000022024B1A5401207047C046184103207D
:10BC9000F0B5C64600B54B6804001B7B0D0084B0B0
:10BCA000002B48D10B68597B09F0B2F92B680700CB
:10BCB000597B200009F0BAF90823010080205B427B
:10BCC0004003984603F0DAFE214E0100380003F0ED
:10BCD000D5FE33001F4D1033B0440100424628000A
:10BCE0000093330004F0ACFF1B4B03AD1A88932084
:10BCF0002A809B788000AB702300604330332B7028
:10BD0000164B29000122C0180DF0ECF9011E0DD1CF
:10BD1000022102A80DF09AFE002811D10122012073
:10BD20000F4B1A7004B080BCB846F0BD0D4804F04B
:10BD300087FF0020F6E70C4804F09AFE0020F1E7A8
:10BD400028000DF009FE09480DF024FEE6E7C04684
:10BD50000441032004B3091048B3091078350320C7
:10BD60001643032024B30910E8B2091040B20910A9
:10BD700010B5040082B0064804F07AFE00212000CD
:10BD8000044B054A009109F069F902B010BDC046A4
:10BD90004CB3091091BC0810F440032000B5074BC8
:10BDA00083B01A8801A90A809B783030087000227D
:10BDB0008B7000200DF096F903B000BD48B3091058
:10BDC00010B509F041F9012358404000C0B210BD40
:10BDD0000020704730B5040001200E4D85B0285575
:10BDE000002002900C489BB20190009320001300A9
:10BDF0000A00002109F0A4F92B5D002B07D00120D7
:10BE00000021404207F018FC2B5D002BF7D10020E9
:10BE100005B030BD1841032081BC081030B50400C6
:10BE200001200E4D85B02855002002900C489BB291
:10BE300001900093200013000A00002109F02CFA61
:10BE40002B5D002B07D001200021404207F0F4FBBE
:10BE50002B5D002BF7D1002005B030BD1841032029
:10BE600081BC081010B51400022910D009D800298F
:10BE700005D0002109F0CCF80004000C206000205F
:10BE800010BD04200329FBD101231360F7E7002133
:10BE900009F0CCF82080F2E7F0B583B005000E0081
:10BEA000140000F0E7F9002801D003B0F0BD154FF1
:10BEB00001223B0001210097053001F065FD3300B0
:10BEC0002A0000940121104801F076FF210028008B
:10BED000714303F0D3FD04000C4B002200930221B8
:10BEE000042001F051FD23000022012100940520CF
:10BEF00001F04AFD3B00022200210097062001F0DC
:10BF000043FDD2E7006CDC0200800240001BB7005A
:10BF1000F0B54E46DE4657464546E0B51600924A15
:10BF200085B09346A022520091465A4603969B46FE
:10BF3000060001920291019B8C4A93420DD9012384
:10BF40005B429C468A4AE1449446019B63440193C8
:10BF50004B460F2BEFD100208EE01F00854B0724AE
:10BF60009C4667442300634338001900984603F059
:10BF700085FDA246651E864250D06C4338002100E4
:10BF800003F07CFD864259D06B1E9846012D00D1EE
:10BF9000D3E05346E41A2100380003F06FFD8642D7
:10BFA00058D0AB1E9846022D00D1B9E05346E41A92
:10BFB0002100380003F062FD864264D0EB1E9846F3
:10BFC000032D66D05346E41A2100380003F056FDD5
:10BFD000864200D172E02B1F9846042D00D174E0F8
:10BFE0005346E41A2100380003F048FD864200D190
:10BFF0007DE0052D00D17FE053463800E11A03F0C3
:10C000003DFD06248642ADD10029ABD1C8465B4632
:10C01000D14601250298039E26E0A84641463800F5
:10C0200003F02CFD002900D197E0651EA2466C4369
:10C030003800210003F022FD8642A5D121003800FE
:10C0400003F01CFD00299FD1C8465B46D1460298EB
:10C05000039E09E00029A4D15246C2465B46C84669
:10C06000554691460298039E4246434951434A46EB
:10C070000160012032601D6005B0F0BCBB46B246D5
:10C08000A946A046F0BD0029E6D0EB1E9846032D38
:10C0900098D1092138000324092503F0EFFC8642DA
:10C0A000BBD00323062138009A460334073D03F032
:10C0B000E5FC8642C2D0012398466AE70029CBD02E
:10C0C0002B1F9846042D00D08AE704240C353B0929
:10C0D0009E42A2D004230C2138009A4608340D3D1C
:10C0E00003F0CCFC8642A9D00223984651E70029F0
:10C0F000B2D0052D00D07FE719213800192503F0B3
:10C10000BDFC864226D01421380003F0B7FC05237D
:10C1100014249A4686421BD0023B9846153D38E7C8
:10C12000042302249846BB089E4200D176E7A2462B
:10C13000013D7B089E4200D180E7B74200D0FEE679
:10C140000122C8465B46914601250298039E8BE773
:10C15000042573E7A846052460E7C8465B46A14668
:10C1600025000298039E7FE750262F0050F80C0010
:10C1700020D1FFFFB0710B00001BB700094A10B5BA
:10C1800094464024830063441A68C00062408034AF
:10C1900014408022520113431C60034B9C466044B0
:10C1A000416010BD04C0014000400140074BC00089
:10C1B0009C466044036809025940C0239B00194013
:10C1C00080235B01034319607047C046044001406F
:10C1D0000123D0228340120693629361094A4021D1
:10C1E0009446830063441A68C0004A40803111407D
:10C1F0008022520113431960034B9C46052360447F
:10C200004360704704C00140004001404021F0B548
:10C21000D6464F46464688468031D0258C46C0B526
:10C22000BB398027002301248A46104A2D067F014E
:10C23000044211D0210099404646A962A9611168C3
:10C240007140664631403E0016433160084ED900C9
:10C25000B146564649440E600133400804321E2B55
:10C26000E6D1E0BCBA46B146A846F0BD04C00140E4
:10C2700004400140024B18688007C00F7047C04659
:10C2800000C00640EFF3108072B6034A1368002B1B
:10C29000FCD0BFF35F8F70472C0100D0BFF35F8FDE
:10C2A0000022024B1A6080F3108870472C0100D0E6
:10C2B00070B5EFF3108C72B60D4D2B68002BFCD0CF
:10C2C000BFF35F8F0724CB08C618C05C01230C4066
:10C2D000A3401C000440034207D118433070BFF351
:10C2E0005F8F2C608CF3108870BD100001F0C6FECB
:10C2F0002C0100D0F8B54746CE46884680B5EFF30E
:10C30000108C72B61C4D2C68002CFCD0BFF35F8FD4
:10C310009A4222D807210126894602E0013293423F
:10C3200018D34D4637001540AF40D4080119045DBD
:10C330002742F3D110003C430C70BFF35F8F002203
:10C340000D4B1A608CF3108800280EDBC0BCB94678
:10C35000B046F8BD01204042EFE7BFF35F8F0023F6
:10C360002B608CF31088012040424346002BEDD017
:10C37000089801F083FEC0462C0100D00021044B38
:10C38000044ABFF35F8F02C39342FAD17047C0469D
:10C39000000100D0800100D0044A1078431CDBB2B9
:10C3A000172B00D9102313707047C04658B40220D1
:10C3B00010B5064B064C82B00100009318221F23D3
:10C3C0002000FFF797FF02B010BDC04664B309100C
:10C3D0005430032001238340002904D0034A136012
:10C3E000034A13607047034A1360FBE780E200E0F2
:10C3F00000E100E080E100E001228240034B1B6885
:10C4000013405A1E9341D8B27047C04600E100E085
:10C41000024B10309B688000C058704700ED00E070
:10C4200070B50D00EFF3108672B60F4A1368002B3B
:10C43000FCD0BFF35F8F0D4B10309B6884001B59FD
:10C440000B4A934203D09D4201D001F02FFE074BCF
:10C450009B681D51BFF35F8FBFF35F8F0022024BBC
:10C460001A6086F3108870BD240100D000ED00E052
:10C47000CD810810F0B557464E46DE464546E0B53C
:10C4800085B0060000911700EFF3108B72B66A4A70
:10C490001368002BFCD0BFF35F8F0025674B5D57FF
:10C4A0009A46002D00DAA9E06B00654C01935B19F8
:10C4B0009B009846A146C1444B4652469B79103694
:10C4C0001370604BB6009B6899590B1B2F2B33D907
:10C4D0005D4B994200D0ACE0019B42469C465B4BD1
:10C4E0006544AD0063535A4B0232A218043B9B1AB9
:10C4F0001B05584A5B0D651913436B80564B012190
:10C50000AB80FF23AB71009BEF71AB604B460B43DD
:10C5100019004C4B9B689951BFF35F8FBFF35F8F3E
:10C520000022454B1A608BF3108805B0F0BCBB4667
:10C53000B246A946A046F0BD01200A008243D37945
:10C540008C46BB4231D84546130044491B1B5B4116
:10C550005943090D3D4B63533D4B02356519043B6F
:10C560005B1B1B053B4D5B0D2B43AA464D466B8069
:10C570000425AC465546E044131F44441B1B1B05D1
:10C580005B0D1D434B46997100999D80996049460A
:10C59000DF71334B01431360BBE75800C0188000C4
:10C5A0002018C179B9422FD902000623D356002B97
:10C5B000F3DA02932B4B61460393131D9A4604232F
:10C5C0005B429C46E14450464B461B1A1B055B0DE3
:10C5D0009C46204B957198466346404603439380A2
:10C5E000019B5A199200039BA418A380029B1C4A2A
:10C5F000A371009B2260E771A3608AE701F056FDFA
:10C60000002553465D574FE7908802934005131D60
:10C610009A46031561469C464046D444634604301E
:10C620002018181AE0230005400D1B021843039040
:10C63000C5E701F03BFD4FE7240100D0154303207F
:10C640005CB4022000ED00E0CD81081000A1FFFFE6
:10C650008CB4022000E0FFFF01BDFFFFAAAA00008A
:10C660000148804701BD0000F8B5DE4657464E46FA
:10C6700045460C00E0B5EFF3108872B65B4A1368CC
:10C68000002BFCD0BFF35F8F594B5A499A680300C7
:10C6900010339F00D5599C468D4238D0A54248D0D2
:10C6A000554EAA1B2F2A32D80122130083409946E7
:10C6B0005248006803409A464B4651480360BFF316
:10C6C0005F8FEFF305839B46002B34D09C4501D050
:10C6D00001F0ECFC01232A009A439068844208D1BF
:10C6E00072E04B005B189B00F3189868A04232D0B0
:10C6F0001A00062151560029F3DA844250D05346DD
:10C70000002B24D04A463F4B1A603C4B1A60384BF2
:10C710009B68DD51BFF35F8FBFF35F8F0022334B08
:10C720001A6088F31088F0BCBB46B246A946A04602
:10C73000F8BD0D00EBE72B00934398681A00844284
:10C74000D7D106201856002809DA0D0030E04A46F5
:10C750002B4B1A60DBE706201856002821DB42002D
:10C760001118890074188B46A1689960E179D97114
:10C77000062161569971002924DBA488F11A640509
:10C7800024155C44091909051F4C490D2143998062
:10C7900013181E4A9B001178F31899711070AEE7B8
:10C7A00013005946002914D1FF3191711849918025
:10C7B00016490A789A71174A9B1B5B415A43120D1E
:10C7C0000A709CE71249E2E7062010561300002881
:10C7D000C5DA114A1149D21A083A5002400D0143F4
:10C7E00099800F4952080A43DA8088E7240100D073
:10C7F00000ED00E0CD8108105CB4022000E100E013
:10C8000080E100E080E200E000E0FFFF154303204C
:10C8100001BDFFFFAAAA000096B4022000F0FFFFAE
:10C8200000F8FFFF70B5EFF3058101240443EFF337
:10C83000108C72B6214A1368002BFCD0BFF35F8FB7
:10C840001F4B05001F4AED1A6D416A43120D1E4D24
:10C850008900AE6852B27658A6421CD006215956BD
:10C8600091421CD012215956914222D01E21595674
:10C87000914220D02A2159560324914210D0134BC3
:10C8800019781A708171BFF35F8F00220B4B1A6009
:10C890008CF3108870BDAB680D4C5C50EFE7002442
:10C8A0006100091989005B18FF2199710949998074
:10C8B000E5E70124F4E70224F2E7C046240100D0B2
:10C8C0005CB40220AAAA000000ED00E0154303209A
:10C8D000CD81081001BDFFFF054B064A1360064AD3
:10C8E000136053609360D360136153619361704729
:10C8F0008080808000E400E004E400E0024B9C467D
:10C9000061448900016070474000003410B50400A4
:10C91000FFF742FD01002000FFF7F0FFFF23237126
:10C92000BFF35F8F10BDC04610B50400FFF734FDA4
:10C9300001002000FFF7E2FFFF23A380BFF35F8F1A
:10C9400010BDC04610B504000120FFF731FD034BB8
:10C95000C3189B002360BFF35F8F10BD40000034FD
:10C9600083680B4810B58446614462441201090192
:10C9700059189B185C684A680120944201D802D07B
:10C980000020C0B210BD1A680B689A42F9D8F7E7C8
:10C99000FFFFFF0F0A4B1968EFF3108072B60A68A9
:10C9A000002AFCD0BFF35F8F1B68BFF35F8F0022AC
:10C9B0001A6080F3108840BF002000217047C046F5
:10C9C00048410320F8B557464E464546DE46E0B599
:10C9D00098460CAB1C780DAB1B78070091469A4625
:10C9E0000668002C57D1B47B002C3AD06500316822
:10C9F0002D19033D49194B78B373002B00D1F37304
:10CA000000238B704B700B702D4BE218BB6812012A
:10CA10009B184A461A6042465A600A9A9A600B9AD4
:10CA2000DA6000238B704B700B70737B9B46002B7E
:10CA300024D0220073685946B06898475B465B0073
:10CA400032685B44033B5519D21800280FD05B466F
:10CA5000AB701378002B24D15B46147073735C4564
:10CA60000DD0F0BCBB46B246A946A046F8BD9470B6
:10CA70002B78002B00D053705B462B7074734A46A2
:10CA80004346387D00F034FC051E11D10E9B002B6F
:10CA9000E7D01D70E5E7650031682D19033D4919A0
:10CAA000B2E76B705B46147073735C45D9D1E6E7EF
:10CAB0005346002BEAD12100386800F04FFEE5E72D
:10CAC000FFFFFF0F664B8200F0B5D4580023DE460F
:10CAD00057464E4645469B46E0B58DB0099000F05E
:10CAE00073FB626806000F00EFF3108872B61368DC
:10CAF000002BFCD0BFF35F8F23689C465B7B99467D
:10CB0000002B0DD16368BFF35F8F4A461A6088F32C
:10CB100010880DB0F0BCBB46B246A946A046F0BD99
:10CB2000504BA5684B441B01ED182868696802004A
:10CB30000B00921BBB41002B0EDD02000B0009987D
:10CB400000F0D6FB6368BFF35F8F5A461A6088F324
:10CB500010880028C3D1DCE7002B01D1002AECD1DA
:10CB60000021604600F066FDAB6802002868696835
:10CB70009A46EB680A900B9108934B465D1EE3685A
:10CB8000585D6368000202432261BFF35F8F5A461B
:10CB90001A6088F310885346002BBAD04B46089988
:10CBA0001843D047626806900791EFF3108872B679
:10CBB0001368002BFCD0BFF35F8F079B002B27DB94
:10CBC000069A079B1100194302D02369002B3BD121
:10CBD0002368D97B002906D01A68480041185218EA
:10CBE0004946033A51709A7B002A01D14A469A730A
:10CBF0004A46DA73E268535D013353555B4623615D
:10CC00006368BFF35F8F5A461A6088F3108866E73F
:10CC10002369002BDCD00A9A0B9B06980799121AFD
:10CC20008B41002B02DA01220F4B5242002104916A
:10CC30000131039149460291089920000191514622
:10CC40000091FFF7BFFED9E700F0BEFA069A079BF6
:10CC500012184B41002BE9DA0122034B5242E5E75F
:10CC600020410320FFFFFF0FFFFFFF7F10B5144C93
:10CC70006368002B04D00A211248FFF73FFE10BD65
:10CC80002300114A1021206800F0E0FB032000F08F
:10CC90008FFA032000F094FB03200C4900F0E2FA25
:10CCA000FFF77AFB0A4B9C4603232375D0231B0610
:10CCB0001B6860446375074B80006060DC60DAE7E6
:10CCC000A4B402204841032061C90810C5CA081055
:10CCD0004000003420410320F0B54E465746DE4662
:10CCE0004546E0B587B0019312AB1B78060005936B
:10CCF00000239A46994600927268EFF3108B72B641
:10CD00001368002BFCD0BFF35F8F3568AC7B002C21
:10CD100000D170E067002B683F19033FDB195A7898
:10CD2000AA73002A00D1EA73464AA118B268090121
:10CD300052180098019910605160109991601199F2
:10CD4000D1604A469A705A701A706B7B9846002BD5
:10CD500061D022006B684146A868984743465B0053
:10CD60002A684344033BD719D21800284CD04346C5
:10CD7000BB701378002B00D07B70434614706B732C
:10CD8000444549D0F3681B19013B18787368BFF319
:10CD90005F8F4A461A608BF310885346002B08D1E8
:10CDA0000002204307B0F0BCBB46B246A946A046ED
:10CDB000F0BD059B002B43D0109B00201199984794
:10CDC00003000B433CD002900391002931DA009B11
:10CDD000019C0299039A5B1A94418022009301946A
:10CDE0001206944204D30123174C5B420093019432
:10CDF000059B9A4680E77368BFF35F8F1C608BF3D7
:10CE0000108801204042CDE794703B78002B00D081
:10CE1000537043463B706C73307D009A019B00F069
:10CE200067FA82460028ADD02100306800F096FCF9
:10CE3000A8E700F0C9F9029B039C1B184C41CCE702
:10CE40000020AFE7FFFFFF0FFFFFFF7FF0B5C646F3
:10CE500000B584B004000D0000F0B6F924184D416F
:10CE6000002D02DA01242B4D644206267642F71784
:10CE700036196F41AF4214D811D000F0A5F9320035
:10CE80003B00121A8B41002B15DC002B3ED02000FA
:10CE9000290000F0D7F904B080BCB846F0BDA64226
:10CEA000EBD90026002700F08FF932003B00121A60
:10CEB0008B41002BE9DD002302930193164B3200D6
:10CEC000009316483B00FFF707FF0130DFD0002337
:10CED00039009846124A1348536A994204D8976A0F
:10CEE000BE42D4D99942D2D10768EFF3108C72B602
:10CEF0003B68002BFCD0BFF35F8F0368BFF35F8FED
:10CF000047461F608CF3108820BFE5E7002ABED09B
:10CF1000D1E7C046FFFFFF7F95C90810A4B40220E7
:10CF20000040054048410320F0B5C64600B584B036
:10CF3000040000F049F9FA2206000F002000002347
:10CF40000021920003F0BAFB8019794104000D1E04
:10CF500002DA01242A4D644206267642F717361972
:10CF60006F41AF4214D811D000F02EF932003B00CF
:10CF7000121A8B41002B15DC002B3ED0200029001B
:10CF800000F060F904B080BCB846F0BDA642EBD911
:10CF90000026002700F018F932003B00121A8B41DE
:10CFA000002BE9DD002302930193164B320000931E
:10CFB00015483B00FFF790FE0130DFD00023390019
:10CFC0009846124A1248536A994204D8976ABE4258
:10CFD000D4D99942D2D10768EFF3108C72B63B686E
:10CFE000002BFCD0BFF35F8F0368BFF35F8F474612
:10CFF0001F608CF3108820BFE5E7002ABED0D1E780
:10D00000FFFFFF7F95C90810A4B40220004005402F
:10D0100048410320F0B5EFF30583C64600B505008F
:10D020000C0084B0002B0FD02F4A0020536AA3427B
:10D0300006D3926A1B1B591E8B41AA4240411843DA
:10D0400004B080BCB846F0BD284E02930193284B33
:10D050000200009330000B00FFF73EFE00280CDCBE
:10D06000214A0020536AA342EAD3926A1B1BAA42B8
:10D0700040415A1E93411843E2E720BF7268EFF324
:10D08000108772B61368002BFCD0BFF35F8FC3B25A
:10D090009846FF22336802409C465B7B43450DD097
:10D0A000634651001B6889185B18033B9B78002B73
:10D0B00004D13269904209D1336107E0F168030A73
:10D0C0008A18013A1278DBB29A4207D07368BFF32C
:10D0D0005F8F00221A6087F31088A5E741466046FB
:10D0E00000F03CFBF2E7C04600400540A4B402203B
:10D0F00095C90810F0B5EFF30582D6464F4646466F
:10D100001000C0B51038EFF3108872B6214C2368B8
:10D11000002BFCD0BFF35F8F0123190081401E4D0F
:10D120001F006963AA461D4D29601D4D2E78AC462F
:10D130003500C5402F402B4215D053465F6A194B2E
:10D140008500EB589F4218D36246174B8E43EB582D
:10D150001670BFF35F8F0022226088F31088002BC7
:10D1600006D0984704E0BFF35F8F276088F31088EC
:10D17000E0BCBA46B146A846F0BD0C4B92009C46B6
:10D18000624413681360BFF35F8F0023236088F34A
:10D190001088EDE7280100D0004005403C700540B4
:10D1A000174303204C4103203C300320D03F05406F
:10D1B00010B5034B01001800024AFFF779F810BDC3
:10D1C0001243032080B30910034B596A0A00986A7E
:10D1D000596A8A42FAD170470040054070B5040090
:10D1E0000D00174A536A1900966A536A8B42FAD1A6
:10D1F0003000190024184D41AB4216D813D0104B03
:10D200002A005B6A9D4203D90D494B6A9342FCD3C5
:10D21000934207D10A4A02E0516A994202D1916AC7
:10D22000A142F9D370BDA642E9D9054B5B6A1C0047
:10D230005A1CEFD0012201246442E5175242E3E771
:10D2400000400540064A536A9942FCD807D1044B76
:10D2500002E05A6A914202D19A6A8242F9D3704737
:10D260000040054070B504000D00EFF3108672B663
:10D270001A4A1368002BFCD0BFF35F8F002D1BD020
:10D280002000FFF7C5F8164981420AD02000FFF7B9
:10D29000C7F801212000FFF79DF80123A340114AA0
:10D2A0001360114BA400E550BFF35F8F00220B4BBE
:10D2B0001A6086F3108870BD0121A1400A4BA200BC
:10D2C000D5500A4B20001A788A4305491A70FFF797
:10D2D000CBF900212000FFF77DF8E5E7280100D019
:10D2E000F5D00810386005403C3003201743032078
:10D2F000F0B54F46D6464646C0B507002B4C616A8E
:10D300000D00A66A616AA942FAD18B4208D805D0FD
:10D310000120E0BCBA46B146A846F0BDB242F7D9FA
:10D32000EFF3108A72B6224801680029FCD0BFF3DF
:10D330005F8F0125BD401F491C4C884609788946EE
:10D340002943C9B28C46414660460870391D8900A0
:10D3500065630A511849B8004350216A00202942E8
:10D3600019D0616A0800A66A616A8142FAD18B42CB
:10D3700019D801D1B24216D8CC450BD00B4B1F2285
:10D380001D625D6301233A4093400C4A136043469B
:10D390004A461A700120BFF35F8F0022044B1A60C7
:10D3A0008AF31088B5E70020F5E7C0460040054045
:10D3B000280100D0174303204C41032080E200E005
:10D3C000EFF3108C72B60A490B68002BFCD0BFF348
:10D3D0005F8F01238340074A0748136202789A430C
:10D3E0000270BFF35F8F00230B608CF310887047CF
:10D3F000280100D0004005401743032070B5060007
:10D400000D00140000291CD0002A12D07368806817
:10D41000984763006A0031681B195219033B033AAD
:10D42000CB188918002806D09D700A78002A0AD1E6
:10D430000C70280070BD8C701A78002A00D04A70D9
:10D440001D702000F6E75A700C70F2E710B583608B
:10D450000023CCB243730133426004738373C473FB
:10D460000068421C012C05D90133DBB21370033272
:10D470009C42F9D1FF230B405A00D318C018002357
:10D480000338437010BDC046F8B5CE464746050088
:10D490000C0080B5002907D04E0003687618033EC3
:10D4A0009A195778002F04D12000C0BCB946B04665
:10D4B000F8BD7900C919033988464344597889462B
:10D4C0000021597051706B683A00210080689847BC
:10D4D00043462A68D3189219002811D09C701178FD
:10D4E000002900D059701770270049462800FFF71F
:10D4F000CBFF390002002800FFF780FF0400D3E7CC
:10D5000097701978002900D051701C70EDE7C04663
:10D51000F8B557464E464546DE464C00E0B5641821
:10D5200017000268033C0500105D13190E009C46AD
:10D53000002854D0430098461B18033BD318597851
:10D540008A46002920D1002F13D0EC7B002C51D02B
:10D5500063001B19D318033B5E70AB7B002B3CD0E0
:10D56000EE73002807D04300984643461918033944
:10D57000531800229A70002362465370F0BCBB46D9
:10D58000B246A946A046F8BD490051440339521895
:10D5900051788846002151708946597052460100E1
:10D5A0002800FFF72BFF43468246002B07D05B0085
:10D5B00029684344033BCB185A78002A1FD14246BE
:10D5C00051462800FFF71AFFA4462A689444002F0A
:10D5D000C7D0EC7B002CC0D0BAE7AE73C0E7002FF9
:10D5E000C9D0EC7B002CB3D1AB7B002B20D1A9732D
:10D5F000E973C0E7AB7B002BEFD0EE73B5E75000CB
:10D60000801803380918487883464846487058708F
:10D6100041462800FFF7F2FE594680462800FFF7F2
:10D6200033FF414602002800FFF7E8FE8046C6E7C8
:10D63000E973A0E7F8B557464E464546DE46E0B5E5
:10D64000467B02687500AD19033D0F00515D53190B
:10D6500004009C46002956D04B0098465B18033BBB
:10D66000D31858788246002822D1002F13D0E57BAA
:10D67000002D53D06B005B19D318033B5E70A37B66
:10D68000002B3ED0E673002907D04B009846434656
:10D6900058180338131800229A700023624630008D
:10D6A00053706173F0BCBB46B246A946A046F8BDB4
:10D6B00040005044033812185078804600205070C3
:10D6C0008146587052462000FFF798FE4346824636
:10D6D000002B07D05B0021684344033BCB185A78EA
:10D6E000002A20D1424651462000FFF787FEAC4673
:10D6F000226801009444002FC5D0E57B002DBED0E8
:10D70000B8E7A673BEE7002FC7D0C57B002DB1D107
:10D71000837B002B20D18673C673BEE7A37B002BCF
:10D72000EFD0E673B3E75000801803380918487843
:10D73000834648464870587041462000FFF75EFE19
:10D74000594680462000FFF79FFE41460200200018
:10D75000FFF754FE8046C5E7C6739EE770B5040028
:10D7600000292CD0437B8B422ED0056848004018FE
:10D77000033828188278002A21D053009B18033BD5
:10D78000EA5CEE188A4202D11BE0002A08D053005E
:10D790009B18033BEB185A788A42F6D142785A70AC
:10D7A00000230122837043702000FFF7B1FE617BEC
:10D7B00002002000FFF722FE6073012000E000203D
:10D7C00070BD43783370EBE701221900FFF7A0FE2C
:10D7D000F2E7C04670B516000D0019000400FFF70F
:10D7E0008DF82900701C03F03BF80023E681A58129
:10D7F0006060A36070BDC046F8B5CE4647460400E1
:10D8000080B506200E0000F0ADFA051E75D0534B12
:10D8100080229C4200D192E0514BD2031A60514BBE
:10D8200051491A6010008B689843FBD14F4B504A06
:10D83000E31859424B4180215B0049000620995270
:10D8400000F090FA3100C00002F018F9C30926D0A8
:10D85000484A934200D876E000234749474A61622C
:10D86000A362256B9046EB0721D52200C0233032FE
:10D870009B011343424A06201A60666AA36AB601F6
:10D88000F61800F06FFA3F4902F0F8F8B60201000E
:10D89000300002F0F3F80021FFF7A0FC07E040227F
:10D8A000012190466162A362256BEB07DDD427005E
:10D8B0008026E36A00232C3776013E43336006203E
:10D8C000256300F04FFA4146800002F0D7F8236B41
:10D8D00005009846DB0715D46023E26A5A400E33F0
:10D8E0001340336043462363802310229B013B4354
:10D8F0001A60234B23630323A3642800C0BCB946EA
:10D90000B046F8BD2200C02330329B0113431C4AAD
:10D9100006201A60636AA26A9B019946914400F04E
:10D9200021FA4B4617499B02994602F0A7F80100DD
:10D93000484602F0A3F80021FFF750FCCCE7084B63
:10D9400012041A606BE77F22990188460240013277
:10D950005208190090441300A4E7C0460080034019
:10D9600000E0004000F0004000C000400080FCBF2C
:10D9700060410320FEFF0000FFFF0000C0FF3F00EA
:10D98000010300004E0E0000F0B545464E46DE464F
:10D990005746E0B583B016000C9A050088469A42B7
:10D9A00000D975E01A0E93461B02180001935946E0
:10D9B00000230C9A02F0A0F8364B6C009C466419C8
:10D9C000A400644463680700834200D260602B1F98
:10D9D000DBB29946012B36D9C02380229B01234319
:10D9E00012011A602C4BAD0059599A46002907D0F4
:10D9F000586902F043F8013043001B18033BFDD285
:10DA0000226873015340E0221A4080235B012343C4
:10DA10001A604A46012A2ED9802380229B01234383
:10DA200012011A60594600233A000198676002F01B
:10DA300063F853465851012003B0F0BCBB46B246D0
:10DA4000A946A046F0BD4346012BC5D1C023032201
:10DA50009B0123431A60023AA3681A42FCD0226851
:10DA600073015340E0221A4080235B0123431A6074
:10DA7000094AAD00924642462168514003220A40BD
:10DA80001A60012243469A40A3681A42FCD0C3E7B9
:10DA90000020D1E700800040F0BC022010B50C202F
:10DAA00082B000F0E9F9FEF7E5FB002810D08B4BBF
:10DAB0008B488B498B4A186059609860D96018610F
:10DAC00059619861D961186259625A6202B010BDF9
:10DAD000854CA06700F026FA0122844B1A60636C23
